:100000000C942A000C94610A0C9473090C948508D2
:100010000C9447000C9447000C9447000C945B032D
:100020000C948E030C94C1030C9441050C94870529
:100030000C9447000C948A010C9447000C94BD0169
:100040000C9429130C9447000C9447000C94BD07A2
:100050000C94470011241FBECFE5D8E0DEBFCDBF12
:1000600011E0A0E6B0E0EEE5F9E502C005900D92E2
:10007000AE3FB107D9F712E0AEEFB1E001C01D927B
:10008000AD33B107E1F70E94112C0C94AD2C0C9408
:100090000000DF93CF930F92CDB7DEB71982ABE2AA
:1000A000B0E0EBE2F0E080818D7F8C93ABE2B0E0DA
:1000B000EBE2F0E080818E7F8C93AAE2B0E0EAE28E
:1000C000F0E080818B7F8C93AAE2B0E0EAE2F0E07E
:1000D00080818C9389818068898389818F7B8983E2
:1000E00089818F7C89838981877F898389818660E3
:1000F000898389818E7F8983E0E4F0E08981808330
:10010000198289818F778983E0E4F0E08981808397
:10011000E9E2F0E083E38083AAE2B0E0EAE2F0E023
:10012000808180688C93AAE2B0E0EAE2F0E080810E
:100130008F7B8C93AAE2B0E0EAE2F0E080818F7DD1
:100140008C93AAE2B0E0EAE2F0E0808180618C93D7
:10015000AAE2B0E0EAE2F0E08081877F8C930F9022
:10016000CF91DF910895DF93CF9300D00F92CDB759
:10017000DEB79B838A8319828A819B81009719F459
:1001800082E0898318C0EBE2F0E080818823DCF70D
:10019000EA81FB8111821082EA81FB812081318119
:1001A000ECE2F0E08081882F90E0822B932BEA81B3
:1001B000FB819183808389810F900F900F90CF9165
:1001C000DF910895DF93CF9300D00F92CDB7DEB7C4
:1001D0009B838A8319828A819B8122E080309207E7
:1001E00018F081E0898310C0EBE2F0E08081829515
:1001F00086958770882F90E0817090700097A1F3AA
:10020000ECE2F0E08A81808389810F900F900F905B
:10021000CF91DF910895DF93CF9300D000D00F925C
:10022000CDB7DEB79D838C831B828C819D819A83A1
:10023000898389819A81009719F482E08B8310C0A9
:10024000E981FA811082EC81FD811082E981FA81D5
:100250009081ECE2F0E08081892BE981FA81808352
:100260008B810F900F900F900F900F90CF91DF9197
:100270000895DF93CF9300D00F92CDB7DEB79B8365
:100280008A8319828A819B8122E08030920718F04C
:1002900081E0898304C0ECE2F0E08A818083898177
:1002A0000F900F900F90CF91DF910895DF93CF9330
:1002B00000D00F92CDB7DEB79B838A8319828A81E3
:1002C0009B81009731F08A819B819093FF018093FD
:1002D000FE0189810F900F900F90CF91DF910895CB
:1002E000DF93CF9300D00F92CDB7DEB79B838A8385
:1002F00019828A819B81009731F08A819B8190933A
:1003000001028093000289810F900F900F90CF918E
:10031000DF9108951F920F920FB60F9211242F9321
:100320003F934F935F936F937F938F939F93AF937D
:10033000BF93EF93FF93DF93CF93CDB7DEB7809159
:10034000FE019091FF01009729F0E091FE01F091EC
:10035000FF010995CF91DF91FF91EF91BF91AF918F
:100360009F918F917F916F915F914F913F912F91CD
:100370000F900FBE0F901F9018951F920F920FB6FF
:100380000F9211242F933F934F935F936F937F931B
:100390008F939F93AF93BF93EF93FF93DF93CF938D
:1003A000CDB7DEB78091000290910102009729F04D
:1003B000E0910002F09101020995CF91DF91FF9148
:1003C000EF91BF91AF919F918F917F916F915F91CD
:1003D0004F913F912F910F900FBE0F901F90189546
:1003E000DF93CF93CDB7DEB7AFE4B0E0EFE4F0E05A
:1003F0008081982FEFE4F0E080818C7F8260892BF0
:100400008C93AEE4B0E0EEE4F0E08081982FEEE46F
:10041000F0E080818861892B8C93AFE4B0E0EFE459
:10042000F0E080818F7380688C93AFE4B0E0EFE4FC
:10043000F0E080818F7C8C93AEE4B0E0EEE4F0E0FD
:100440008081887F82608C93A9E5B0E0E9E5F0E0E7
:1004500080818B7F8C93A9E5B0E0E9E5F0E08081B5
:100460008F7E8C93A9E5B0E0E9E5F0E08081877F9D
:100470008C93CF91DF910895DF93CF9300D0CDB7C8
:10048000DEB79A838983ECE4F0E089819A819183D5
:1004900080830F900F90CF91DF910895DF93CF93DA
:1004A00000D0CDB7DEB79A838983E6E4F0E0898196
:1004B0009A81918380830F900F90CF91DF9108955F
:1004C000DF93CF9300D0CDB7DEB79A838983EAE478
:1004D000F0E089819A81918380830F900F90CF9172
:1004E000DF910895DF93CF9300D0CDB7DEB79A8325
:1004F0008983E8E4F0E089819A81918380830F9079
:100500000F90CF91DF910895DF93CF93CDB7DEB7F2
:10051000ECE4F0E080819181CF91DF910895DF9349
:10052000CF93CDB7DEB7E6E4F0E080819181CF9143
:10053000DF910895DF93CF93CDB7DEB7EAE4F0E023
:1005400080819181CF91DF910895DF93CF93CDB7D3
:10055000DEB7E8E4F0E080819181CF91DF910895EA
:10056000DF93CF93CDB7DEB7A9E5B0E0E9E5F0E0E2
:10057000808184608C93CF91DF910895DF93CF9336
:10058000CDB7DEB7A9E5B0E0E9E5F0E080818B7F8B
:100590008C93CF91DF910895DF93CF93CDB7DEB7E2
:1005A000A9E5B0E0E9E5F0E0808180618C93CF912E
:1005B000DF910895DF93CF93CDB7DEB7A9E5B0E023
:1005C000E9E5F0E080818F7E8C93CF91DF910895F3
:1005D000DF93CF93CDB7DEB7A9E5B0E0E9E5F0E072
:1005E000808188608C93CF91DF910895DF93CF93C2
:1005F000CDB7DEB7A9E5B0E0E9E5F0E08081877F1F
:100600008C93CF91DF910895DF93CF9300D00F9219
:10061000CDB7DEB79B838A8319828A819B8100973D
:1006200019F482E0898306C08A819B81909303023A
:100630008093020289810F900F900F90CF91DF91EC
:100640000895DF93CF9300D00F92CDB7DEB79B8391
:100650008A8319828A819B81009719F482E08983B9
:1006600006C08A819B819093050280930402898150
:100670000F900F900F90CF91DF910895DF93CF935C
:1006800000D00F92CDB7DEB79B838A8319828A810F
:100690009B81009719F482E0898306C08A819B813F
:1006A000909307028093060289810F900F900F901C
:1006B000CF91DF9108951F920F920FB60F921124E0
:1006C0002F933F934F935F936F937F938F939F935A
:1006D000AF93BF93EF93FF93DF93CF93CDB7DEB785
:1006E0008091040290910502009729F0E0910402A4
:1006F000F09105020995CF91DF91FF91EF91BF91A4
:10070000AF919F918F917F916F915F914F913F91A9
:100710002F910F900FBE0F901F9018951F920F9260
:100720000FB60F9211242F933F934F935F936F93C4
:100730007F938F939F93AF93BF93EF93FF93DF9339
:10074000CF93CDB7DEB78091060290910702009754
:1007500029F0E0910602F09107020995CF91DF910F
:10076000FF91EF91BF91AF919F918F917F916F9189
:100770005F914F913F912F910F900FBE0F901F905F
:1007800018951F920F920FB60F9211242F933F933B
:100790004F935F936F937F938F939F93AF93BF9389
:1007A000EF93FF93DF93CF93CDB7DEB78091020233
:1007B00090910302009729F0E0910202F091030268
:1007C0000995CF91DF91FF91EF91BF91AF919F91EB
:1007D0008F917F916F915F914F913F912F910F90EA
:1007E0000FBE0F901F901895DF93CF93CDB7DEB754
:1007F000A3E5B0E0E3E5F0E080818F7B8C93A3E597
:10080000B0E0E3E5F0E0808188608C93A3E5B0E0A0
:10081000E3E5F0E080818F7C8C93E3E5F0E080817C
:10082000882F90E080739070009729F081E063E05A
:1008300041E00E94C70DA3E5B0E0E3E5F0E0808170
:10084000887F83608C93A9E5B0E0E9E5F0E08081E2
:100850008E7F8C93A9E5B0E0E9E5F0E080818D7FA3
:100860008C93CF91DF910895DF93CF9300D0CDB7D4
:10087000DEB78A8319828A81883018F081E0898303
:100880000AC0A3E5B0E0E3E5F0E08081982F987F0F
:100890008A81892B8C9389810F900F90CF91DF9162
:1008A0000895DF93CF930F92CDB7DEB78983E2E54A
:1008B000F0E0898180830F90CF91DF910895DF93DD
:1008C000CF9300D00F92CDB7DEB79B838A83198276
:1008D0008A819B81009719F482E0898306C0E2E552
:1008E000F0E08081EA81FB81808389810F900F9005
:1008F0000F90CF91DF910895DF93CF930F92CDB7F3
:10090000DEB78983ECE5F0E0898180830F90CF9199
:10091000DF910895DF93CF93CDB7DEB7A9E5B0E0BF
:10092000E9E5F0E0808181608C93CF91DF910895BB
:10093000DF93CF93CDB7DEB7A9E5B0E0E9E5F0E00E
:1009400080818E7F8C93CF91DF910895DF93CF9339
:10095000CDB7DEB7A9E5B0E0E9E5F0E080818260DF
:100960008C93CF91DF910895DF93CF93CDB7DEB70E
:10097000A9E5B0E0E9E5F0E080818D7F8C93CF912F
:10098000DF910895DF93CF9300D00F92CDB7DEB7FC
:100990009B838A8319828A819B81009719F482E064
:1009A000898306C08A819B81909309028093080203
:1009B00089810F900F900F90CF91DF910895DF9371
:1009C000CF9300D00F92CDB7DEB79B838A83198275
:1009D0008A819B81009719F482E0898306C08A810D
:1009E0009B8190930B0280930A0289810F900F9054
:1009F0000F90CF91DF910895DF93CF9300D000D077
:100A0000CDB7DEB769837A838B839C83E2E5F0E020
:100A10008081873958F089819A81AB81BC810196A8
:100A2000A11DB11D89839A83AB83BC8389819A817F
:100A3000AB81BC810296A11DB11D89839A83AB83D2
:100A4000BC8310920C0210920D0210920E021092B2
:100A50000F0220910C0230910D0240910E02509134
:100A60000F0289819A81AB81BC81281739074A0717
:100A70005B0779F70F900F900F900F90CF91DF9158
:100A800008951F920F920FB60F9211242F933F9348
:100A90004F935F936F937F938F939F93AF93BF9386
:100AA000EF93FF93DF93CF93CDB7DEB780910C0226
:100AB00090910D02A0910E02B0910F020196A11D1E
:100AC000B11D80930C0290930D02A0930E02B0937F
:100AD0000F0280910A0290910B02009729F0E09199
:100AE0000A02F0910B020995CF91DF91FF91EF91EE
:100AF000BF91AF919F918F917F916F915F914F9136
:100B00003F912F910F900FBE0F901F9018951F923D
:100B10000F920FB60F9211242F933F934F935F9331
:100B20006F937F938F939F93AF93BF93EF93FF93B5
:100B3000DF93CF93CDB7DEB7809108029091090281
:100B4000009729F0E0910802F09109020995CF91F0
:100B5000DF91FF91EF91BF91AF919F918F917F9125
:100B60006F915F914F913F912F910F900FBE0F901A
:100B70001F901895DF93CF93CDB7DEB7E0E2F0E09A
:100B800082E08083A1E2B0E0E1E2F0E080818C7F4E
:100B90008C93A6E5B0E0E6E5F0E080818F7B8C9356
:100BA000A2E2B0E0E2E2F0E080818E7F8C93A2E2EC
:100BB000B0E0E2E2F0E08081817084618C93A6E590
:100BC000B0E0E6E5F0E0808184608C93A6E5B0E0DB
:100BD000E6E5F0E080818E7F8C93CF91DF910895E0
:100BE000DF93CF93CDB7DEB7A6E5B0E0E6E5F0E062
:100BF000808180648C93A2E2B0E0E2E2F0E0808148
:100C00008E7F8C93A2E2B0E0E2E2F0E0808181701E
:100C100088628C93A6E5B0E0E6E5F0E08081846030
:100C20008C93A6E5B0E0E6E5F0E080818E7F8C93C2
:100C3000CF91DF910895DF93CF930F92CDB7DEB7B9
:100C40001982A6E5B0E0E6E5F0E0808180628C9351
:100C5000A6E5B0E0E6E5F0E0808180688C93A6E54B
:100C6000B0E0E6E5F0E0808184608C93E6E5F0E0BA
:100C700080818823DCF7E1E2F0E08081882F90E03A
:100C8000887F90708830910511F082E08983898196
:100C90000F90CF91DF910895DF93CF930F92CDB74F
:100CA000DEB71982A6E5B0E0E6E5F0E0808180627B
:100CB0008C93A6E5B0E0E6E5F0E0808180688C9357
:100CC000A6E5B0E0E6E5F0E0808184608C93E6E59F
:100CD000F0E080818823DCF7E1E2F0E08081882F7A
:100CE00090E0887F90708031910511F083E08983D6
:100CF00089810F90CF91DF910895DF93CF9300D03A
:100D0000CDB7DEB78A831982E3E2F0E08A81880FEB
:100D10008083A3E2B0E0E3E2F0E080818E7F8C93F9
:100D2000A6E5B0E0E6E5F0E080818F7D8C93A6E556
:100D3000B0E0E6E5F0E0808180688C93A6E5B0E065
:100D4000E6E5F0E0808184608C93E6E5F0E0808168
:100D50008823DCF7E1E2F0E08081882F90E0887F53
:100D600090708831910511F084E0898389810F901A
:100D70000F90CF91DF910895DF93CF9300D0CDB73F
:100D8000DEB78A831982E3E2F0E08A81880F8083EC
:100D9000A3E2B0E0E3E2F0E0808181608C93A6E51D
:100DA000B0E0E6E5F0E080818F7D8C93A6E5B0E0D1
:100DB000E6E5F0E0808180688C93A6E5B0E0E6E5AA
:100DC000F0E0808184608C93E6E5F0E08081882308
:100DD000DCF7E1E2F0E08081882F90E0887F90707E
:100DE0008034910511F084E0898389810F900F9000
:100DF000CF91DF910895DF93CF9300D0CDB7DEB7C9
:100E00008A831982E3E2F0E08A818083A6E5B0E07C
:100E1000E6E5F0E0808180688C93A6E5B0E0E6E549
:100E2000F0E0808184608C93E6E5F0E080818823A7
:100E3000DCF7E1E2F0E08081882F90E0887F90701D
:100E40008832910511F085E0898389810F900F9098
:100E5000CF91DF910895DF93CF9300D00F92CDB75C
:100E6000DEB79B838A8319828A819B81009719F45C
:100E700081E0898326C0A6E5B0E0E6E5F0E0808168
:100E800084608C93A6E5B0E0E6E5F0E080818068C0
:100E90008C93E6E5F0E080818823DCF7E1E2F0E086
:100EA0008081882F90E0887F90708835910519F0B7
:100EB00086E0898306C0E3E2F0E08081EA81FB817D
:100EC000808389810F900F900F90CF91DF910895CB
:100ED000DF93CF93CDB7DEB7A6E5B0E0E6E5F0E06F
:100EE000808180618C93A6E5B0E0E6E5F0E080814A
:100EF00080688C93A6E5B0E0E6E5F0E08081846050
:100F00008C93CF91DF910895DF93CF93CDB7DEB768
:100F1000A6E5B0E0E6E5F0E0808181608C93CF91BA
:100F2000DF910895DF93CF93CDB7DEB7A6E5B0E0AC
:100F3000E6E5F0E080818E7F8C93CF91DF9108957C
:100F4000DF93CF9300D00F92CDB7DEB79B838A8318
:100F500019828A819B81009719F482E0898306C0F7
:100F60008A819B81909311028093100289810F9056
:100F70000F900F90CF91DF9108951F920F920FB6AF
:100F80000F9211242F933F934F935F936F937F930F
:100F90008F939F93AF93BF93EF93FF93DF93CF9381
:100FA000CDB7DEB78091100290911102009729F021
:100FB000E0911002F09111020995CF91DF91FF911C
:100FC000EF91BF91AF919F918F917F916F915F91C1
:100FD0004F913F912F910F900FBE0F901F9018953A
:100FE000DF93CF93CDB7DEB7AFE5B0E0EFE5F0E04C
:100FF000808180688C93CF91DF910895DF93CF93A8
:10100000CDB7DEB7AFE5B0E0EFE5F0E080818F77F8
:101010008C93CF91DF910895DF93CF93CDB7DEB757
:10102000A4E5B0E0E4E5F0E0808180648C93CF91AA
:10103000DF910895DF93CF93CDB7DEB7ABE5B0E096
:10104000EBE5F0E0808180628C93CF91DF91089591
:10105000DF93CF93CDB7DEB7ABE5B0E0EBE5F0E0E3
:1010600080818F7D8C93CF91DF910895DF93CF9313
:1010700000D000D0CDB7DEB78A8319828A81282FAD
:1010800030E03C832B838B819C818230910531F051
:101090002B813C812330310549F010C0A4E5B0E03C
:1010A000E4E5F0E080818F7B8C930AC0A4E5B0E09A
:1010B000E4E5F0E0808180648C9302C081E0898364
:1010C00089810F900F900F900F90CF91DF9108952D
:1010D000DF93CF9300D00F92CDB7DEB79B838A8387
:1010E00019828A819B81009719F482E0898306C066
:1010F0008A819B81909313028093120289810F90C1
:101100000F900F90CF91DF9108951F920F920FB61D
:101110000F9211242F933F934F935F936F937F937D
:101120008F939F93AF93BF93EF93FF93DF93CF93EF
:10113000CDB7DEB78091120290911302009729F08B
:10114000E0911202F09113020995CF91DF91FF9186
:10115000EF91BF91AF919F918F917F916F915F912F
:101160004F913F912F910F900FBE0F901F901895A8
:10117000DF93CF93CDB7DEB7A5E5B0E0E5E5F0E0CE
:1011800080818B7F8C93A5E5B0E0E5E5F0E0808180
:10119000877F8C93CF91DF910895DF93CF93CDB765
:1011A000DEB7ABE5B0E0EBE5F0E0808180688C93E2
:1011B000CF91DF910895DF93CF93CDB7DEB7ABE545
:1011C000B0E0EBE5F0E080818F778C93CF91DF91F9
:1011D0000895DF93CF9300D000D0CDB7DEB78A83D8
:1011E00019828A81282F30E03C832B838B819C815C
:1011F0008130910521F12B813C81223031052CF485
:101200008B819C81009761F047C02B813C8122300B
:10121000310521F18B819C818330910571F13CC0B6
:10122000A5E5B0E0E5E5F0E080818B7F8C93A5E556
:10123000B0E0E5E5F0E08081877F8C932FC0A5E5E5
:10124000B0E0E5E5F0E0808184608C93A5E5B0E056
:10125000E5E5F0E08081877F8C9320C0A5E5B0E0D4
:10126000E5E5F0E080818B7F8C93A5E5B0E0E5E5D6
:10127000F0E0808188608C9311C0A5E5B0E0E5E5E1
:10128000F0E0808184608C93A5E5B0E0E5E5F0E0D6
:10129000808188608C9302C081E0898389810F906E
:1012A0000F900F900F90CF91DF910895DF93CF9320
:1012B00000D00F92CDB7DEB79B838A8319828A81D3
:1012C0009B81009719F482E0898306C08A819B8103
:1012D000909315028093140289810F900F900F90C4
:1012E000CF91DF9108951F920F920FB60F921124A4
:1012F0002F933F934F935F936F937F938F939F931E
:10130000AF93BF93EF93FF93DF93CF93CDB7DEB748
:101310008091140290911502009729F0E091140237
:10132000F09115020995CF91DF91FF91EF91BF9157
:10133000AF919F918F917F916F915F914F913F916D
:101340002F910F900FBE0F901F901895DF93CF93A2
:10135000CDB7DEB7A5E5B0E0E5E5F0E080818160DE
:101360008C93A5E5B0E0E5E5F0E0808182608C93A8
:10137000CF91DF910895DF93CF93CDB7DEB7ABE583
:10138000B0E0EBE5F0E0808180648C93CF91DF9159
:101390000895DF93CF93CDB7DEB7ABE5B0E0EBE5D3
:1013A000F0E080818F7B8C93CF91DF910895DF9364
:1013B000CF9300D000D0CDB7DEB78A8319828A815F
:1013C000282F30E03C832B838B819C8181309105D9
:1013D00021F12B813C81223031052CF48B819C81C1
:1013E000009761F047C02B813C812230310521F10B
:1013F0008B819C818330910571F13CC0A5E5B0E003
:10140000E5E5F0E080818E7F8C93A5E5B0E0E5E531
:10141000F0E080818D7F8C932FC0A5E5B0E0E5E5FD
:10142000F0E0808181608C93A5E5B0E0E5E5F0E037
:1014300080818D7F8C9320C0A5E5B0E0E5E5F0E0EC
:1014400080818E7F8C93A5E5B0E0E5E5F0E08081BA
:1014500082608C9311C0A5E5B0E0E5E5F0E0808105
:1014600081608C93A5E5B0E0E5E5F0E080818260E5
:101470008C9302C081E0898389810F900F900F9037
:101480000F90CF91DF910895DF93CF9300D00F920B
:10149000CDB7DEB79B838A8319828A819B810097AF
:1014A00019F482E0898306C08A819B819093170298
:1014B0008093160289810F900F900F90CF91DF914A
:1014C00008951F920F920FB60F9211242F933F93FE
:1014D0004F935F936F937F938F939F93AF93BF933C
:1014E000EF93FF93DF93CF93CDB7DEB780911602D2
:1014F00090911702009729F0E0911602F0911702DF
:101500000995CF91DF91FF91EF91BF91AF919F919D
:101510008F917F916F915F914F913F912F910F909C
:101520000FBE0F901F901895DF93CF93CDB7DEB706
:10153000EAE3F0E08CEF8083E7E3F0E08BEF808379
:10154000E4E3F0E08FEF8083E1E3F0E082EF80837B
:10155000CF91DF910895DF93CF9300D000D000D0DA
:10156000CDB7DEB78A836B834C8319828B81883039
:1015700018F081E08983ECC08A81282F30E03E8317
:101580002D838D819E818130910509F449C02D8183
:101590003E81223031052CF48D819E81009771F0BF
:1015A000D5C02D813E812230310509F46BC08D817B
:1015B0009E818330910509F497C0C8C08C8188232F
:1015C000A9F4ABE3B0E0EBE3F0E08081482F8B813E
:1015D000282F30E081E090E0022E02C0880F991F92
:1015E0000A94E2F7809584238C93B2C08C81813079
:1015F000A1F4ABE3B0E0EBE3F0E08081482F8B8116
:10160000282F30E081E090E0022E02C0880F991F61
:101610000A94E2F7842B8C939BC081E0898398C065
:101620008C818823A9F4A8E3B0E0E8E3F0E08081AE
:10163000482F8B81282F30E081E090E0022E02C0FD
:10164000880F991F0A94E2F7809584238C9380C0B9
:101650008C818130A1F4A8E3B0E0E8E3F0E0808180
:10166000482F8B81282F30E081E090E0022E02C0CD
:10167000880F991F0A94E2F7842B8C9369C081E04C
:10168000898366C08C818823A9F4A5E3B0E0E5E3F3
:10169000F0E08081482F8B81282F30E081E090E0BE
:1016A000022E02C0880F991F0A94E2F780958423C6
:1016B0008C934EC08C818130A1F4A5E3B0E0E5E3CA
:1016C000F0E08081482F8B81282F30E081E090E08E
:1016D000022E02C0880F991F0A94E2F7842B8C9384
:1016E00037C081E0898334C08C818823A9F4A2E3C8
:1016F000B0E0E2E3F0E08081482F8B81282F30E0DA
:1017000081E090E0022E02C0880F991F0A94E2F750
:10171000809584238C931CC08C818130A1F4A2E33A
:10172000B0E0E2E3F0E08081482F8B81282F30E0A9
:1017300081E090E0022E02C0880F991F0A94E2F720
:10174000842B8C9305C081E0898302C081E089836A
:10175000898126960FB6F894DEBF0FBECDBFCF911C
:10176000DF910895DF93CF93CDB7DEB727970FB6FC
:10177000F894DEBF0FBECDBF8A836B835D834C833D
:1017800019828B81883018F081E089837AC08C813E
:101790009D81009719F482E0898373C08A81282F84
:1017A00030E03F832E834E815F814130510559F1F6
:1017B0008E819F818230910534F42E813F812115E5
:1017C000310569F05CC04E815F814230510579F18D
:1017D0008E819F818330910509F43DC050C0E9E3BB
:1017E000F0E08081282F30E08B81882F90E0A901E4
:1017F00002C0559547958A95E2F7CA018170EC8140
:10180000FD8180833EC0E6E3F0E08081282F30E058
:101810008B81882F90E0A90102C0559547958A9544
:10182000E2F7CA018170EC81FD8180832AC0E3E385
:10183000F0E08081282F30E08B81882F90E0A90193
:1018400002C0559547958A95E2F7CA018170EC81EF
:10185000FD81808316C0E0E3F0E08081282F30E036
:101860008B81882F90E0A90102C0559547958A95F4
:10187000E2F7CA018170EC81FD81808302C081E0C2
:101880008983898127960FB6F894DEBF0FBECDBF3E
:10189000CF91DF910895DF93CF9300D000D00F92C6
:1018A000CDB7DEB78A836B8319828B81883018F0BD
:1018B00081E0898371C08A81282F30E03D832C83A9
:1018C0008C819D818130910549F12C813D812230AF
:1018D00031052CF48C819D81009761F05BC02C81D7
:1018E0003D812230310571F18C819D8183309105DC
:1018F000E9F150C0ABE3B0E0EBE3F0E08081482FCA
:101900008B81282F30E081E090E0022E02C0880F0A
:10191000991F0A94E2F784278C933EC0A8E3B0E0B5
:10192000E8E3F0E08081482F8B81282F30E081E0D0
:1019300090E0022E02C0880F991F0A94E2F78427D4
:101940008C932AC0A5E3B0E0E5E3F0E08081482F66
:101950008B81282F30E081E090E0022E02C0880FBA
:10196000991F0A94E2F784278C9316C0A2E3B0E093
:10197000E2E3F0E08081482F8B81282F30E081E086
:1019800090E0022E02C0880F991F0A94E2F7842784
:101990008C9302C081E0898389810F900F900F9012
:1019A0000F900F90CF91DF910895DF93CF9300D0E8
:1019B00000D00F92CDB7DEB78A836B8319828A81FC
:1019C000282F30E03D832C838C819D8181309105CF
:1019D000D1F02C813D81223031052CF48C819D8108
:1019E000009761F01FC02C813D812230310581F0CC
:1019F0008C819D818330910581F014C0EBE3F0E090
:101A00008B81808311C0E8E3F0E08B8180830CC080
:101A1000E5E3F0E08B81808307C0E2E3F0E08B81B7
:101A2000808302C081E0898389810F900F900F909D
:101A30000F900F90CF91DF910895DF93CF9300D057
:101A400000D000D0CDB7DEB78A837C836B83198248
:101A50008B819C81009719F482E089833DC08A8143
:101A6000282F30E03E832D838D819E81813091052A
:101A7000E1F02D813E81223031052CF48D819E8153
:101A8000009761F027C02D813E8122303105A1F001
:101A90008D819E8183309105B1F01CC0E9E3F0E0B7
:101AA0008081EB81FC81808317C0E6E3F0E08081D8
:101AB000EB81FC81808310C0E3E3F0E08081EB8167
:101AC000FC81808309C0E0E3F0E08081EB81FC8150
:101AD000808302C081E08983898126960FB6F894BD
:101AE000DEBF0FBECDBFCF91DF910895DF93CF93BF
:101AF00000D000D0CDB7DEB78A8319828A81282F23
:101B000030E03C832B838B819C8181309105E9F00F
:101B10002B813C81223031052CF48B819C810097F4
:101B200061F02BC02B813C8122303105B1F08B81DB
:101B30009C8183309105C9F020C0ABE3B0E0EBE3BA
:101B4000F0E0808180958C931AC0A8E3B0E0E8E3D0
:101B5000F0E0808180958C9312C0A5E3B0E0E5E3CE
:101B6000F0E0808180958C930AC0A2E3B0E0E2E3CC
:101B7000F0E0808180958C9302C081E08983898127
:101B80000F900F900F900F90CF91DF910895DF93FA
:101B9000CF9300D000D000D0CDB7DEB78A836B835F
:101BA0004C8319828B81883018F081E08983ECC0E6
:101BB0008A81282F30E03E832D838D819E81813064
:101BC000910509F449C02D813E81223031052CF464
:101BD0008D819E81009771F0D5C02D813E8122308C
:101BE000310509F46BC08D819E818330910509F424
:101BF00097C0C8C08C818823A9F4AAE3B0E0EAE3C7
:101C0000F0E08081482F8B81282F30E081E090E048
:101C1000022E02C0880F991F0A94E2F78095842350
:101C20008C93B2C08C818130A1F4AAE3B0E0EAE3E6
:101C3000F0E08081482F8B81282F30E081E090E018
:101C4000022E02C0880F991F0A94E2F7842B8C930E
:101C50009BC081E0898398C08C818823A9F4A7E385
:101C6000B0E0E7E3F0E08081482F8B81282F30E05F
:101C700081E090E0022E02C0880F991F0A94E2F7DB
:101C8000809584238C9380C08C818130A1F4A7E35C
:101C9000B0E0E7E3F0E08081482F8B81282F30E02F
:101CA00081E090E0022E02C0880F991F0A94E2F7AB
:101CB000842B8C9369C081E0898366C08C818823E2
:101CC000A9F4A4E3B0E0E4E3F0E08081482F8B8145
:101CD000282F30E081E090E0022E02C0880F991F8B
:101CE0000A94E2F7809584238C934EC08C818130D6
:101CF000A1F4A4E3B0E0E4E3F0E08081482F8B811D
:101D0000282F30E081E090E0022E02C0880F991F5A
:101D10000A94E2F7842B8C9337C081E0898334C026
:101D20008C818823A9F4A1E3B0E0E1E3F0E08081B5
:101D3000482F8B81282F30E081E090E0022E02C0F6
:101D4000880F991F0A94E2F7809584238C931CC016
:101D50008C818130A1F4A1E3B0E0E1E3F0E0808187
:101D6000482F8B81282F30E081E090E0022E02C0C6
:101D7000880F991F0A94E2F7842B8C9305C081E0A9
:101D8000898302C081E08983898126960FB6F89401
:101D9000DEBF0FBECDBFCF91DF910895DF93CF930C
:101DA000CDB7DEB727970FB6F894DEBF0FBECDBF15
:101DB0008A836B835D834C8319828B81883018F012
:101DC00081E089837AC08C819D81009719F482E03B
:101DD000898373C08A81282F30E03F832E834E8110
:101DE0005F814130510559F18E819F81823091058B
:101DF00034F42E813F812115310569F05CC04E819C
:101E00005F814230510579F18E819F818330910548
:101E100009F43DC050C0EAE3F0E08081282F30E0B3
:101E20008B81882F90E0A90102C0559547958A952E
:101E3000E2F7CA018170EC81FD8180833EC0E7E357
:101E4000F0E08081282F30E08B81882F90E0A9017D
:101E500002C0559547958A95E2F7CA018170EC81D9
:101E6000FD8180832AC0E4E3F0E08081282F30E008
:101E70008B81882F90E0A90102C0559547958A95DE
:101E8000E2F7CA018170EC81FD81808316C0E1E335
:101E9000F0E08081282F30E08B81882F90E0A9012D
:101EA00002C0559547958A95E2F7CA018170EC8189
:101EB000FD81808302C081E08983898127960FB6E6
:101EC000F894DEBF0FBECDBFCF91DF910895DF93B1
:101ED000CF9300D000D00F92CDB7DEB78A836B834B
:101EE00019828A81282F30E03D832C838C819D814B
:101EF00081309105D1F02C813D81223031052CF4C7
:101F00008C819D81009761F01FC02C813D81223022
:101F1000310581F08C819D818330910581F014C061
:101F2000EAE3F0E08B81808311C0E7E3F0E08B818E
:101F300080830CC0E4E3F0E08B81808307C0E1E3A1
:101F4000F0E08B81808302C081E0898389810F90DA
:101F50000F900F900F900F90CF91DF910895DF9326
:101F6000CF9300D000D000D0CDB7DEB78A837C837A
:101F70006B8319828B819C81009719F482E089839D
:101F80003DC08A81282F30E03E832D838D819E8144
:101F900081309105E1F02D813E81223031052CF414
:101FA0008D819E81009761F027C02D813E81223076
:101FB0003105A1F08D819E8183309105B1F01CC067
:101FC000EAE3F0E08081EB81FC81808317C0E7E3E6
:101FD000F0E08081EB81FC81808310C0E4E3F0E0DD
:101FE0008081EB81FC81808309C0E1E3F0E08081A6
:101FF000EB81FC81808302C081E089838981269600
:102000000FB6F894DEBF0FBECDBFCF91DF9108951C
:10201000DF93CF9300D000D00F92CDB7DEB78A8385
:102020006B8319828B81883018F081E08983CDC061
:102030008A81282F30E03D832C834C815D814130A3
:10204000510509F442C08C819D818230910534F4A0
:102050002C813D812115310571F0B5C04C815D8128
:102060004230510509F45BC08C819D81833091051C
:1020700009F47FC0A8C0EAE3F0E08081282F30E0B7
:102080008B81882F90E0A90102C0559547958A95CC
:10209000E2F7CA01817090700097A1F4ABE3B0E061
:1020A000EBE3F0E08081482F8B81282F30E081E046
:1020B00090E0022E02C0880F991F0A94E2F7842B49
:1020C0008C9383C083E0898380C0E7E3F0E0808164
:1020D000282F30E08B81882F90E0A90102C0559510
:1020E00047958A95E2F7CA01817090700097A1F434
:1020F000A8E3B0E0E8E3F0E08081482F8B81282F4F
:1021000030E081E090E0022E02C0880F991F0A940F
:10211000E2F7842B8C9359C083E0898356C0E4E3B3
:10212000F0E08081282F30E08B81882F90E0A9019A
:1021300002C0559547958A95E2F7CA018170907063
:102140000097A1F4A5E3B0E0E5E3F0E08081482F3B
:102150008B81282F30E081E090E0022E02C0880FB2
:10216000991F0A94E2F7842B8C932FC083E0898314
:102170002CC0E1E3F0E08081282F30E08B81882FB4
:1021800090E0A90102C0559547958A95E2F7CA01EA
:10219000817090700097A1F4A2E3B0E0E2E3F0E078
:1021A0008081482F8B81282F30E081E090E0022E43
:1021B00002C0880F991F0A94E2F7842B8C9305C004
:1021C00083E0898302C081E0898389810F900F9029
:1021D0000F900F900F90CF91DF910895DF93CF93E1
:1021E00000D000D00F92CDB7DEB78A836B831982FF
:1021F0008B81883018F081E08983D1C08A81282FB3
:1022000030E03D832C834C815D814130510509F4E0
:1022100043C08C819D818230910534F42C813D81B5
:102220002115310571F0B9C04C815D8142305105F5
:1022300009F45DC08C819D818330910509F482C0D1
:10224000ACC0EAE3F0E08081282F30E08B81882F5A
:1022500090E0A90102C0559547958A95E2F7CA0119
:10226000817090700097A9F4ABE3B0E0EBE3F0E08D
:102270008081482F8B81282F30E081E090E0022E72
:1022800002C0880F991F0A94E2F7809584238C93EB
:1022900086C083E0898383C0E7E3F0E08081282F54
:1022A00030E08B81882F90E0A90102C055954795B9
:1022B0008A95E2F7CA01817090700097A9F4A8E3AB
:1022C000B0E0E8E3F0E08081482F8B81282F30E0F8
:1022D00081E090E0022E02C0880F991F0A94E2F775
:1022E000809584238C935BC083E0898358C0E4E3AA
:1022F000F0E08081282F30E08B81882F90E0A901C9
:1023000002C0559547958A95E2F7CA018170907091
:102310000097A9F4A5E3B0E0E5E3F0E08081482F61
:102320008B81282F30E081E090E0022E02C0880FE0
:10233000991F0A94E2F7809584238C9330C083E040
:1023400089832DC0E1E3F0E08081282F30E08B818C
:10235000882F90E0A90102C0559547958A95E2F72C
:10236000CA01817090700097A9F4A2E3B0E0E2E3A3
:10237000F0E08081482F8B81282F30E081E090E0D1
:10238000022E02C0880F991F0A94E2F780958423D9
:102390008C9305C083E0898302C081E089838981B1
:1023A0000F900F900F900F900F90CF91DF910895A5
:1023B000DF93CF93CDB7DEB7A7E2B0E0E7E2F0E07E
:1023C0008081806C8C93A7E2B0E0E7E2F0E080814E
:1023D0008F7D8C93A6E2B0E0E6E2F0E0808187603A
:1023E0008C93A6E2B0E0E6E2F0E080818F7D8C93F2
:1023F000A6E2B0E0E6E2F0E0808188608C93A6E29D
:10240000B0E0E6E2F0E0808180688C93CF91DF91CC
:102410000895DF93CF93CDB7DEB7A6E2B0E0E6E252
:10242000F0E0808180688C93CF91DF910895DF93F5
:10243000CF93CDB7DEB7A6E2B0E0E6E2F0E0808170
:102440008F778C93CF91DF910895DF93CF9300D056
:1024500000D0CDB7DEB78A837C836B8319828A81F3
:10246000883018F081E089832BC0A7E2B0E0E7E272
:10247000F0E08081982F907F8A81892B8C93A6E24F
:10248000B0E0E6E2F0E0808180648C93E6E2F0E088
:10249000808182958F70882F90E081709070009776
:1024A000A9F38B819C810E948C12982F8981892BA2
:1024B0008983A6E2B0E0E6E2F0E0808180618C935F
:1024C00089810F900F900F900F90CF91DF91089519
:1024D000DF93CF9300D0CDB7DEB78A8319828A818C
:1024E000883018F081E0898311C0A7E2B0E0E7E20C
:1024F000F0E08081982F907F8A81892B8C93A6E2CF
:10250000B0E0E6E2F0E0808180648C9389810F90F6
:102510000F90CF91DF910895DF93CF9300D00F926A
:10252000CDB7DEB79B838A8319828A819B8100970E
:1025300019F482E0898308C0E4E2F0E080819181AF
:10254000EA81FB819183808389810F900F900F90A6
:10255000CF91DF910895DF93CF9300D0CDB7DEB751
:102560008A8319828A81883018F081E089830AC0C1
:10257000A7E2B0E0E7E2F0E08081982F907F8A81C7
:10258000892B8C9389810F900F90CF91DF910895C3
:10259000DF93CF9300D0CDB7DEB78A8319828A81CB
:1025A000843018F081E0898315C0A7E2B0E0E7E24B
:1025B000F0E08081282F2F738A81882F90E00024FB
:1025C000969587950794969587950794982F802DD3
:1025D000822B8C9389810F900F90CF91DF9108957A
:1025E000DF93CF93CDB7DEB7A6E2B0E0E6E2F0E04E
:1025F000808188608C93CF91DF910895DF93CF9392
:10260000CDB7DEB7A6E2B0E0E6E2F0E08081877FFA
:102610008C93CF91DF910895DF93CF9300D00F92E9
:10262000CDB7DEB79B838A8319828A819B8100970D
:1026300019F482E0898306C08A819B8190931902F4
:102640008093180289810F900F900F90CF91DF91A6
:1026500008951F920F920FB60F9211242F933F935C
:102660004F935F936F937F938F939F93AF93BF939A
:10267000EF93FF93DF93CF93CDB7DEB7809118022E
:1026800090911902009729F0E0911802F091190237
:102690000995CF91DF91FF91EF91BF91AF919F91FC
:1026A0008F917F916F915F914F913F912F910F90FB
:1026B0000FBE0F901F901895DF93CF93CDB7DEB765
:1026C0000E94F0018FE19EE40E944E0286E292E0B9
:1026D0000E946002CF91DF910895DF93CF9300D0E5
:1026E00000D000D0CDB7DEB78E831D8219821A824A
:1026F0001B821C828E81853B18F081E08D8325C072
:102700008E81882F90E0A0E0B0E02EEE37E040E030
:1027100050E0BC01CD010E941E2CDC01CB0124EB5A
:1027200030E040E050E0BC01CD010E94702CDA01A5
:10273000C9018A5D9D4FAF4FBF4F89839A83AB8399
:10274000BC8389819A810E9460028D8126960FB692
:10275000F894DEBF0FBECDBFCF91DF910895DF9318
:10276000CF93CDB7DEB727970FB6F894DEBF0FBE75
:10277000CDBF9F838E831D8219821A821B821C8289
:102780008E819F81009719F482E08D832CC00E9476
:102790009A0286529240CC01A0E0B0E089839A83ED
:1027A000AB83BC8389819A81AB81BC8124EB30E00F
:1027B00040E050E0BC01CD010E941E2CDC01CB01A9
:1027C0002EEE37E040E050E0BC01CD010E94702CBD
:1027D000DA01C90189839A83AB83BC8389818F5FC6
:1027E000EE81FF8180838D8127960FB6F894DEBF3E
:1027F0000FBECDBFCF91DF910895DF93CF93CDB7BB
:10280000DEB70E94BA05CF91DF910895DF93CF9391
:1028100000D000D0CDB7DEB78A837C836B8319826A
:102820000E941B06982F8981892B898380E50E944D
:102830007D06982F8981892B89838A810E94FB06D6
:10284000982F8981892B89830E944C06982F898132
:10285000892B898380E50E94BC06982F8981892B6A
:1028600089838B819C810E942B07982F8981892BDA
:1028700089830E94680789810F900F900F900F90B5
:10288000CF91DF910895DF93CF9300D00F92CDB712
:10289000DEB78A836B8319820E941B06982F898179
:1028A000892B898380E50E947D06982F8981892B59
:1028B00089838A810E94FB06982F8981892B8983CD
:1028C0008B810E94FB06982F8981892B89830E9426
:1028D000680763E070E080E090E00E94FC0489817A
:1028E0000F900F900F90CF91DF910895DF93CF93CA
:1028F00000D000D0CDB7DEB71C8282E064E040E0BB
:102900000E94AB0A982F8C81892B8C8388E38B8360
:102910008B810E940B15982F8C81892B8C8361E011
:1029200070E080E090E00E94FC048CE08B838B815F
:102930000E940B15982F8C81892B8C8361E070E0AD
:1029400080E090E00E94FC0481E00E940B15982F2B
:102950008C81892B8C8361E070E080E090E00E94A4
:10296000FC0486E08B838B810E940B15982F8C8151
:10297000892B8C8361E070E080E090E00E94FC0491
:1029800080E40E940B15982F8C81892B8C8361E049
:1029900070E080E090E00E94FC041A822AC0198254
:1029A00022C08A81482F50E08981282F30E0CA0157
:1029B000880F991F880F991F880F991F820F931FE7
:1029C000FC01E652FE4F80810E945215982F8C81A7
:1029D000892B8C8361E070E080E090E00E94FC0431
:1029E00089818F5F898389818830D8F28A818F5F5E
:1029F0008A838A81843098F280E80E940B15982F90
:102A00008C81892B8C838C810F900F900F900F906D
:102A1000CF91DF910895DF93CF9300D0CDB7DEB78C
:102A20008A83198282E062E040E00E94AB0A982F1C
:102A30008981892B898382E063E040E00E94AB0AB0
:102A4000982F8981892B898382E064E040E00E948D
:102A5000AB0A982F8981892B89838A810E94E1168C
:102A6000982F8981892B898382E064E041E00E946C
:102A7000AB0A982F8981892B898361E070E080E01F
:102A800090E00E94FC0482E064E040E00E94AB0A17
:102A9000982F8981892B898389810F900F90CF91FD
:102AA000DF910895DF93CF9300D0CDB7DEB78A834F
:102AB000198282E062E041E00E94AB0A982F89818E
:102AC000892B898382E063E040E00E94AB0A982F63
:102AD0008981892B898382E064E040E00E94AB0A0F
:102AE000982F8981892B89838A810E94E116982FEA
:102AF0008981892B898382E064E041E00E94AB0AEE
:102B0000982F8981892B898361E070E080E090E0D3
:102B10000E94FC0482E064E040E00E94AB0A982F2F
:102B20008981892B898389810F900F90CF91DF91C3
:102B30000895DF93CF9300D000D0CDB7DEB79C834C
:102B40008B831A8219828B819C810097A9F482E081
:102B50008A831DC08981282F30E08B819C81FC01F4
:102B6000E20FF31F80810E945215982F8A81892BD2
:102B70008A8389818F5F89838981282F30E08B81C7
:102B80009C81FC01E20FF31F8081882319F78A8161
:102B90000F900F900F900F90CF91DF910895DF93DA
:102BA000CF9300D000D00F92CDB7DEB78A836B836E
:102BB00019828B81803120F58A81282F30E03D8376
:102BC0002C838C819D81009731F02C813D812130B7
:102BD000310551F012C08B8180580E940B15982F3F
:102BE0008981892B89830EC08B8180540E940B15AB
:102BF000982F8981892B898305C081E0898302C050
:102C000081E0898389810F900F900F900F900F9032
:102C1000CF91DF910895DF93CF93CDB7DEB72F9794
:102C20000FB6F894DEBF0FBECDBF6C877D878E8751
:102C30009F871B868C859D85AE85BF858F839887F2
:102C4000A987BA871B821C821D821E821A828A81F2
:102C50008F5F8A838F819885A985BA852AE030E0C5
:102C600040E050E0BC01CD010E94922CDC01CB0180
:102C70009C01AD018B819C81AD81BE81820F931F30
:102C8000A41FB51F8B839C83AD83BE838F819885E2
:102C9000A985BA852AE030E040E050E0BC01CD01D2
:102CA0000E94922CDA01C9018F839887A987BA877D
:102CB0008B819C81AD81BE812AE030E040E050E014
:102CC000BC01CD010E941E2CDC01CB018B839C83B7
:102CD000AD83BE838F819885A985BA850097A105AC
:102CE000B10509F0B4CF8B819C81AD81BE812AE012
:102CF00030E040E050E0BC01CD010E94922CDA01AE
:102D0000C9018B839C83AD83BE838C859D85AE85F5
:102D1000BF85BB23E4F48DE20E945215982F8B856A
:102D2000892B8B878B819C81AD81BE81BB237CF4F9
:102D30008B819C81AD81BE81B095A0959095819548
:102D40009F4FAF4FBF4F8B839C83AD83BE83198250
:102D50002AC08B819C81AD81BE812AE030E040E0B9
:102D600050E0BC01CD010E94922CDC01CB01805DC2
:102D70000E945215982F8B85892B8B878B819C8184
:102D8000AD81BE812AE030E040E050E0BC01CD01E1
:102D90000E94922CDA01C9018B839C83AD83BE8390
:102DA00089818F5F898399818A81981790F28B85B9
:102DB0002F960FB6F894DEBF0FBECDBFCF91DF9137
:102DC0000895DF93CF9300D0CDB7DEB78A83198201
:102DD0008A81982F917081E063E0492F0E94AB0AAD
:102DE000982F8981892B89838A818695982F917064
:102DF00081E064E0492F0E94AB0A982F8981892BDA
:102E000089838A8186958695982F917081E065E007
:102E1000492F0E94AB0A982F8981892B89838A8147
:102E2000869586958695982F917081E066E0492F6A
:102E30000E94AB0A982F8981892B89838A81829588
:102E40008F70982F917081E067E0492F0E94AB0A44
:102E5000982F8981892B89838A81829586958770AD
:102E6000982F917082E065E0492F0E94AB0A982F5D
:102E70008981892B89838A8182958695869583703D
:102E8000982F917082E066E0492F0E94AB0A982F3C
:102E90008981892B89838A81982F991F9927991F66
:102EA00082E067E0492F0E94AB0A982F8981892B25
:102EB000898389810F900F90CF91DF910895DF93DF
:102EC000CF930F92CDB7DEB78FEF89830E94940A1C
:102ED00083E062E00E94081083E063E00E94081033
:102EE00081E062E00E9408100E94FD130E94D81148
:102EF0008EE099E10E940C130E9449008BE299E157
:102F00000E9456010E94F4038AEF0E947C0484E828
:102F100099E10E94DF040E94A6040E94A6098EE1A6
:102F20009AE10E94440A0E94B8088AE29AE10E944B
:102F300056090E940C0886E39AE10E9468080E94E4
:102F40005C130E94F0120E94BB090E94CD080E94EF
:102F50001A080E94F0070E94761480E59E012F5FF8
:102F60003F4FB9010E94061489818F3FC9F480E563
:102F700060E00E9443148091FC019091FD01982F24
:102F800081E5692F0E9443148091FC019091FD011D
:102F9000892F9927982F82E5692F0E9443140FC02B
:102FA0002CEF31E081E5B9010E9406148CEF91E02D
:102FB0009C012F5F3F4F82E5B9010E94061480916A
:102FC000FC019091FD010E94421A80E060E00E94A5
:102FD00021250E94121A0F90CF91DF910895DF935F
:102FE000CF9300D0CDB7DEB71A8219828091350217
:102FF00080748823D9F0809135028F7B80933502CD
:103000008981882349F483E00E94C81280E00E94ED
:10301000681281E089830AC08981813039F483E0B4
:103020000E94C81281E00E946812198280913502C4
:103030008170882371F08091350280618093350220
:103040000E94321B0E943928809135028E7F809326
:103050003502809135028072882341F280913502D9
:103060008F7D80933502809135028F7E809335026B
:103070000E9439288091300290913102009709F026
:103080003EC08091370288708823C9F18091370251
:10309000877F8093370280912F028370813019F4EB
:1030A0000E94BA2407C080912F028370823011F4ED
:1030B0000E94CB2480912F028C7F80932F028091DD
:1030C0002F028C70843019F40E94DC2407C0809198
:1030D0002F028C70883011F40E94ED2480912F0211
:1030E000837F80932F0280912F028073803111F4AF
:1030F0000E94FE2480912F028F7C80932F0280916A
:1031000037028470882359F08A818F5F8A830E94F6
:1031100016258A81863019F40E940A251A82809128
:103120002D0290912E02CC01A0E0B0E0BA2FA92F81
:10313000982F88272FEF33E040E050E0BC01CD010D
:103140000E94702CDA01C901809334028091390207
:103150008823F9F080913A028823D9F080913702D0
:103160008270882349F49091390280913402981733
:1031700018F40E94DC240DC08091370282708823ED
:1031800041F090913A0280913402891710F40E9424
:10319000ED248091320290913302CC01A0E0B0E0A6
:1031A00024E630E040E050E0BC01CD010E941E2C3E
:1031B000DC01CB012FEF33E040E050E0BC01CD015A
:1031C0000E94702CDA01C9018093360280913B0283
:1031D000882309F40BCF80913C02882309F406CFA1
:1031E000809137028170882349F090913B02809151
:1031F0003602981718F40E94CB24F8CE809137023B
:103200008170882309F0F2CE90913C0280913602C1
:10321000891708F0EBCE0E94BA24E8CEDF93CF9353
:10322000CDB7DEB780911C02882341F48DE292E095
:103230000E948C1281E080931C020AC080911C02C3
:10324000813031F482E392E00E948C1210921C02D1
:10325000CF91DF910895DF93CF9300D0CDB7DEB744
:103260008DE192E00E940B0180911D02282F30E039
:103270003A83298389819A818535910501F12981D4
:103280003A81263531055CF489819A81843491052F
:1032900009F129813A812534310539F130C089811C
:1032A0009A818536910509F129813A8125373105C1
:1032B00031F089819A818436910561F020C0809136
:1032C000350282608093350280913502816080935F
:1032D000350215C08091350284608093350280915B
:1032E00035028160809335020AC080913502886082
:1032F00080933502809135028160809335020F9072
:103300000F90CF91DF910895DF93CF93CDB7DEB7C4
:10331000809135028078882381F0809135028F7703
:103320008093350280E00E94510410921E02109298
:103330001F02109220021092210280911E02909191
:103340001F02A0912002B09121020196A11DB11D82
:1033500080931E0290931F02A0932002B09321023B
:1033600080911E0290911F02A0912002B091210233
:1033700080359105A105B10569F080911E029091FB
:103380001F02A0912002B0912102803F9105A1056A
:10339000B10531F4809135028064809335022BC0F1
:1033A00080911E0290911F02A0912002B0912102F3
:1033B000843F21E0920720E0A20720E0B207D9F481
:1033C000809137028870882349F080913002909173
:1033D00031020197909331028093300210921E02C5
:1033E00010921F0210922002109221028091350249
:1033F000806280933502809135028270882351F477
:10340000809135028470882329F480913502887078
:10341000882329F080913502816080933502CF9115
:10342000DF910895DF93CF93CDB7DEB7809135025A
:10343000806880933502CF91DF910895DF93CF9319
:10344000CDB7DEB780913502826080933502CF918F
:10345000DF910895DF93CF93CDB7DEB7809135022A
:10346000846080933502CF91DF910895DF93CF93ED
:10347000CDB7DEB780913502886080933502CF9159
:10348000DF910895DF93CF93CDB7DEB76B970FB67B
:10349000F894DEBF0FBECDBF9E8B8D8B1D821C822C
:1034A0001B821A821982CE010696988F8F8BE5E7D0
:1034B000F0E0FA8FE98FFFE0FB8FE98DFA8D008055
:1034C000898D9A8D01969A8F898FEF89F88D008268
:1034D0008F89988D0196988F8F8B9B8D91509B8FA4
:1034E000EB8DEE2351F78EE00E940B15CE01069670
:1034F0000E94991581E060E00E94CF1580E690E07F
:103500000E949915809135028D7F809335028091BC
:1035100035028B7F8093350280913502877F8093BF
:103520003502809135028E7F809335028EC081E016
:103530006B810E94CF15809135028170882309F438
:1035400084C0809135028E7F809335028091350250
:1035500082708823B1F0809135028D7F809335028F
:103560008C81893011F41C8203C08C818F5F8C8325
:103570008C81805D0E94521581E06B810E94CF1585
:1035800064C08091350284708823B9F0809135023F
:103590008B7F809335028C81882319F489E08C839A
:1035A00003C08C8181508C838C81805D0E94521578
:1035B00081E06B810E94CF1548C0809135028870F0
:1035C000882309F442C080913502877F80933502B9
:1035D00089819A819C01220F331FC901880F991F8D
:1035E000880F991F280F391F8C81882F90E0820F38
:1035F000931F9A8389838B81833019F529813A81BE
:103600008D899E892817390719F481E08D831DC0A3
:1036100080E060E00E94CF1585E690E00E94991559
:1036200081E060E00E94CF1580E690E00E9499154D
:1036300081E060E00E94CF151C821B821A821982F1
:1036400004C08B818F5F8B831C828D81882309F45A
:103650006ECF6B960FB6F894DEBF0FBECDBFCF9185
:10366000DF910895DF93CF93CDB7DEB727970FB6DD
:10367000F894DEBF0FBECDBF8091FB01898380919E
:1036800035028270882309F453C0809135028D7F02
:10369000809335028091FA01882329F485E060E067
:1036A0000E9421250CC18091FB01882339F480916F
:1036B000FA01815060E00E94212501C18091FA0148
:1036C000282F30E03F832E838E819F8183309105A8
:1036D00019F12E813F81243031055CF48E819F8168
:1036E0008130910589F02E813F812230310581F0B2
:1036F000E6C08E819F818430910591F02E813F81BB
:103700002530310589F0DBC080E00E94681CD7C0FD
:1037100080E00E94AB1ED3C080E00E94BC20CFC0DE
:1037200080E00E94C822CBC080E00E94BB23C7C0BB
:10373000809135028470882309F456C08091350247
:103740008B7F809335028091FA01853041F4898125
:10375000882329F480E060E00E942125B0C0809198
:10376000FB01882339F48091FA018F5F60E00E94A9
:103770002125A5C08091FA01282F30E03D832C83BC
:103780008C819D818330910519F12C813D812430FC
:1037900031055CF48C819D818130910589F02C810B
:1037A0003D812230310581F08AC08C819D81843039
:1037B000910591F02C813D812530310589F07FC044
:1037C00081E00E94681C7BC081E00E94AB1E77C034
:1037D00081E00E94BC2073C081E00E94C8226FC0BB
:1037E00081E00E94BB236BC08091350288708823E2
:1037F00009F460C080913502877F80933502809103
:10380000FA01882309F45BC08091FB01882341F40D
:103810008091FA0199819F5F692F0E9421254FC0F5
:103820008091FA01282F30E03B832A838A819B8193
:103830008330910519F12A813B81243031055CF4F4
:103840008A819B818130910589F02A813B812230D8
:10385000310581F01EC08A819B818430910591F0F1
:103860002A813B812530310589F013C082E00E9416
:10387000681C0FC082E00E94AB1E0BC082E00E9459
:10388000BC2007C082E00E94C82203C082E00E94E0
:10389000BB239091FB018981891789F08091FB01FD
:1038A000898385E08093FB018091FA0169810E9400
:1038B000212505C0809135028F7E809335022796A1
:1038C0000FB6F894DEBF0FBECDBFCF91DF91089544
:1038D000DF93CF9300D00F92CDB7DEB7898380916D
:1038E000FB01282F30E03B832A838A819B81823031
:1038F0009105D1F02A813B812330310534F48A814E
:103900009B818130910561F01AC02A813B8123306F
:10391000310571F08A819B818430910569F00FC077
:1039200089810E94A51C0BC089810E94921D07C03D
:1039300089810E94F21D03C089810E94521E0F904E
:103940000F900F90CF91DF910895DF93CF9300D028
:103950000F92CDB7DEB789838981282F30E03B8372
:103960002A834A815B814130510521F18A819B8103
:1039700082309105A9F12A813B812115310509F099
:10398000CBC080911B02823021F080911A028930D5
:1039900041F080911B02823039F480911A02853007
:1039A00019F410921A02B8C080911A028F5F8093A6
:1039B0001A02B2C080911A02882361F480911B021E
:1039C000823021F485E080931A02A6C089E08093BA
:1039D0001A02A2C080911A02815080931A029CC0E0
:1039E00080911B028823F9F480911A02282F30E07D
:1039F00088E592E0AC01249FC001259F900D349F83
:103A0000900D11249C018091220290912302820F3B
:103A1000931F909323028093220280911B028F5F59
:103A200080931B0277C080911B028130F9F4809152
:103A30001A02282F30E08CE390E0AC01249FC001F3
:103A4000259F900D349F900D11249C01809122029E
:103A500090912302820F931F90932302809322025E
:103A600080911B028F5F80931B0254C080911B02C8
:103A70008230F9F480911A02882F90E09C01220F85
:103A8000331FC901880F991F880F991F820F931F39
:103A90009C018091220290912302820F931F9093A8
:103AA00023028093220280911B028F5F80931B026E
:103AB00031C080911B02833069F580911A02282F52
:103AC00030E08091220290912302820F931F909305
:103AD00023028093220280913702877F80933702EE
:103AE00080912202909123029093310280933002C0
:103AF0008091300290913102009719F41092FB01ED
:103B000003C082E08093FB011092230210922202F4
:103B100010921B0210921A020F900F900F90CF91EB
:103B2000DF910895DF93CF9300D00F92CDB7DEB72A
:103B300089838981282F30E03B832A838A819B8176
:103B400081309105B9F02A813B812230310501F1A4
:103B50008A819B81009709F03FC080911A028230D0
:103B600019F410921A0238C080911A028F5F809364
:103B70001A0232C080911A02882321F482E08093D5
:103B80001A022AC080911A02815080931A0224C01E
:103B900080911A02882339F480912F028C7F8160F2
:103BA00080932F0214C080911A02813039F48091E1
:103BB0002F028C7F826080932F0209C080911A02AD
:103BC000823029F480912F028C7F80932F0283E032
:103BD0008093FB0110921A020F900F900F90CF91DB
:103BE000DF910895DF93CF9300D00F92CDB7DEB76A
:103BF00089838981282F30E03B832A838A819B81B6
:103C000081309105B9F02A813B812230310501F1E3
:103C10008A819B81009709F03FC080911A0282300F
:103C200019F410921A0238C080911A028F5F8093A3
:103C30001A0232C080911A02882321F482E0809314
:103C40001A022AC080911A02815080931A0224C05D
:103C500080911A02882339F480912F02837F846037
:103C600080932F0214C080911A02813039F4809120
:103C70002F02837F886080932F0209C080911A02EF
:103C8000823029F480912F02837F80932F0284E079
:103C90008093FB0110921A020F900F900F90CF911A
:103CA000DF910895DF93CF9300D00F92CDB7DEB7A9
:103CB00089838981282F30E03B832A838A819B81F5
:103CC00081309105B1F02A813B8122303105F9F034
:103CD0008A819B810097C9F580911A02813019F47D
:103CE00010921A0232C080911A028F5F80931A02DA
:103CF0002CC080911A02882321F481E080931A025B
:103D000024C080911A02815080931A021EC08091B3
:103D10001A02882339F480912F028F7C806180936E
:103D20002F020AC080911A02813031F480912F0253
:103D30008F7C806280932F021092FB01809137026A
:103D400088608093370210921A020F900F900F90A4
:103D5000CF91DF910895DF93CF930F92CDB7DEB768
:103D600089838091FB01813021F489810E94C41EE6
:103D700007C08091FB01823019F489810E94211FC4
:103D80000F90CF91DF910895DF93CF9300D00F92E2
:103D9000CDB7DEB789838981282F30E03B832A8322
:103DA0008A819B8181309105B1F02A813B8122304B
:103DB0003105F9F08A819B810097E9F580911A021B
:103DC000833019F410921A0236C080911A028F5F64
:103DD00080931A0230C080911A02882321F483E074
:103DE00080931A0228C080911A02815080931A028F
:103DF00022C080911A02882339F40E94DC24109298
:103E00003A021092FB0115C080911A02813039F4F8
:103E10000E94ED24109239021092FB010AC0809199
:103E20001A02823021F482E08093FB0102C01092DA
:103E3000FB0110921A020F900F900F90CF91DF911B
:103E40000895DF93CF9300D00F92CDB7DEB789836B
:103E50008981282F30E03B832A838A819B818130AE
:103E6000910509F494C02A813B812230310509F47F
:103E700012C18A819B81009709F078C180911B0251
:103E8000882341F480911A02843021F482E08093E7
:103E90001A026CC180911B02813039F480911A02A0
:103EA000893019F410921A0261C180911B0282308C
:103EB000B1F480911A02E82FF0E080912502882F5A
:103EC00090E005972AE030E0B9010E945D2CCB011B
:103ED000E817F90721F481E080931A0247C1809125
:103EE0001B02833009F04DC0809124029AE0692FB3
:103EF0000E943D2CE82FF0E080912502882F90E071
:103F000005972AE030E0B9010E945D2CCB01E8174B
:103F1000F9073CF480911A02893019F410921A02C0
:103F200025C1809124029AE0692F0E943D2CE82F40
:103F3000F0E080912502882F90E005972AE030E09C
:103F4000B9010E945D2CCB01E817F907A1F480911B
:103F50001A02E82FF0E080912502882F90E0059763
:103F60002AE030E0B9010E945D2CE817F90719F446
:103F700010921A02FBC080911A028F5F80931A027E
:103F8000F5C080911A028F5F80931A02EFC0809172
:103F90001B02882341F480911A02823021F484E0CC
:103FA00080931A02E3C080911B02813041F480911A
:103FB0001A02882321F489E080931A02D7C08091E5
:103FC0001B02823091F480911A02813071F4809149
:103FD0002502882F90E005972AE030E0B9010E9481
:103FE0005D2CCB0180931A02C1C080911B028330EB
:103FF00009F04BC0809124029AE0692F0E943D2C69
:10400000E82FF0E080912502882F90E005972AE0C4
:1040100030E0B9010E945D2CCB01E817F90744F4A8
:1040200080911A02882321F489E080931A029EC0AD
:10403000809124029AE0692F0E943D2CE82FF0E045
:1040400080912502882F90E005972AE030E0B901A1
:104050000E945D2CCB01E817F90789F480911A02C0
:10406000882369F480912502882F90E005972AE043
:1040700030E0B9010E945D2C80931A0277C08091D4
:104080001A02815080931A0271C080911A028150E5
:1040900080931A026BC080911B028823D1F4809117
:1040A0001A02882F90E09C01220F331FC901880F4C
:1040B000991F880F991F820F931F982F80912502B7
:1040C000890F8093250281E080931B0210921A02CF
:1040D0004DC080911B02813071F490912502809136
:1040E0001A02890F8093250282E080931B0281E0EF
:1040F00080931A023BC080911B028230D1F48091E0
:104100001A02882F90E09C01220F331FC901880FEB
:10411000991F880F991F820F931F982F8091240257
:10412000890F8093240283E080931B0210921A026D
:104130001DC080911B028330C9F4909124028091AC
:104140001A02890F809324028091250280933902FC
:104150008091240280933A021092FB011092250272
:104160001092240210921B0210921A020F900F90CC
:104170000F90CF91DF910895DF93CF930F92CDB73A
:10418000DEB789838091FB01813021F489810E940F
:10419000D52007C08091FB01823019F489810E94EB
:1041A00032210F90CF91DF910895DF93CF9300D00C
:1041B0000F92CDB7DEB789838981282F30E03B830A
:1041C0002A838A819B8181309105B1F02A813B81CC
:1041D00022303105F9F08A819B810097E9F58091C1
:1041E0001A02833019F410921A0236C080911A0212
:1041F0008F5F80931A0230C080911A02882321F4C5
:1042000083E080931A0228C080911A028150809323
:104210001A0222C080911A02882339F40E94BA241B
:1042200010923B021092FB0115C080911A0281305E
:1042300039F40E94CB2410923C021092FB010AC078
:1042400080911A02823021F482E08093FB0102C047
:104250001092FB0110921A020F900F900F90CF91C5
:10426000DF910895DF93CF9300D00F92CDB7DEB7E3
:1042700089838981282F30E03B832A838A819B812F
:104280008130910509F48FC02A813B8122303105AC
:1042900009F40DC18A819B81009709F073C1809157
:1042A0001B02882341F480911A02893021F482E0B4
:1042B00080931A0267C180911B02813039F480918A
:1042C0001A02893019F410921A025CC180911B0203
:1042D0008230B1F480911A02E82FF0E08091270239
:1042E000882F90E00A972AE030E0B9010E945D2C07
:1042F000CB01E817F90721F481E080931A0242C14B
:1043000080911B02833009F048C0809126029AE018
:10431000692F0E943D2CE82FF0E080912702882F22
:1043200090E00A972AE030E0B9010E945D2CCB01B1
:10433000E817F9073CF480911A02893019F41092B9
:104340001A0220C1809126029AE0692F0E943D2C1A
:10435000E82FF0E080912702882F90E00A972AE06A
:1043600030E0B9010E945D2CCB01E817F90779F420
:10437000809127029AE0692F0E943D2C892F982F67
:1043800080911A02981719F410921A02FBC08091BA
:104390001A028F5F80931A02F5C080911A028F5F14
:1043A00080931A02EFC080911B02882341F4809110
:1043B0001A02823021F489E080931A02E3C08091CE
:1043C0001B02813041F480911A02882321F489E094
:1043D00080931A02D7C080911B02823091F48091A1
:1043E0001A02813071F480912702882F90E00A9799
:1043F0002AE030E0B9010E945D2CCB0180931A02C3
:10440000C1C080911B02833009F04BC0809126020D
:104410009AE0692F0E943D2CE82FF0E0809127025E
:10442000882F90E00A972AE030E0B9010E945D2CC5
:10443000CB01E817F90744F480911A02882321F48C
:1044400089E080931A029EC0809126029AE0692F2B
:104450000E943D2CE82FF0E080912702882F90E009
:104460000A972AE030E0B9010E945D2CCB01E817E1
:10447000F90789F480911A02882369F48091260251
:10448000882F90E00A972AE030E0B9010E945D2C65
:1044900080931A0277C080911A02815080931A0289
:1044A00071C080911A02815080931A026BC0809172
:1044B0001B028823D1F480911A02882F90E09C017E
:1044C000220F331FC901880F991F880F991F820F70
:1044D000931F982F80912702890F8093270281E0F4
:1044E00080931B0210921A024DC080911B028130F2
:1044F00071F49091270280911A02890F809327020C
:1045000082E080931B0281E080931A023BC080917D
:104510001B028230D1F480911A02882F90E09C0116
:10452000220F331FC901880F991F880F991F820F0F
:10453000931F982F80912602890F8093260283E093
:1045400080931B0210921A021DC080911B028330BF
:10455000C9F49091260280911A02890F8093260255
:104560008091270280933B028091260280933C0237
:104570001092FB01109227021092260210921B0249
:1045800010921A020F900F900F90CF91DF91089523
:10459000DF93CF930F92CDB7DEB789838091FB0174
:1045A000813019F489810E94D9220F90CF91DF9137
:1045B0000895DF93CF9300D00F92CDB7DEB78983F4
:1045C0008981282F30E03B832A834A815B814130F7
:1045D000510509F440C08A819B818230910509F41C
:1045E00071C02A813B812115310509F0BEC080913F
:1045F0001B02882339F480911A02813019F4109239
:104600001A02B3C080911B02813061F480912802AC
:104610008456843638F480911A02883019F4109246
:104620001A02A3C080911B02823041F480912802BB
:10463000845B8A3018F410921A0297C080911A0293
:10464000893019F410921A0290C080911A028F5F7B
:1046500080931A028AC080911B02882341F48091C2
:104660001A02882321F481E080931A027EC080918F
:104670001B02813069F4809128028456843640F40C
:1046800080911A02882321F488E080931A026DC079
:1046900080911B02823041F480912802845B8A3031
:1046A00018F410921A0261C080911A02882321F432
:1046B00089E080931A0259C080911A028150809338
:1046C0001A0253C080911B028823C1F480911A0200
:1046D000282F30E084E690E0AC01249FC001259FA4
:1046E000900D349F900D1124982F80912802890FEE
:1046F0008093280281E080931B0235C080911B02C9
:104700008130C1F480911A02882F90E09C01220F21
:10471000331FC901880F991F880F991F820F931F9C
:10472000982F80912802890F8093280282E080933D
:104730001B0219C080911B028230A9F490912802BB
:1047400080911A02890F8093280280912802809319
:104750003802809138020E946D131092FB01109272
:10476000280210921B0210921A020F900F900F90C5
:10477000CF91DF910895DF93CF9300D00F92CDB703
:10478000DEB789838091FB01833039F489818230DF
:1047900009F0EAC01092FB01E7C08981282F30E0C0
:1047A0003B832A834A815B8141305105C1F08A8174
:1047B0009B818230910509F12A813B8121153105C8
:1047C00009F0D2C080911A02893019F410921A02AD
:1047D000CBC080911A028F5F80931A02C5C080916E
:1047E0001A02882321F489E080931A02BDC08091C7
:1047F0001A02815080931A02B7C080911B0288234D
:10480000E9F480911A02282F30E088EE93E0AC01A1
:10481000249FC001259F900D349F900D11249C0171
:104820008091290290912A02820F931F90932A026D
:104830008093290281E080931B0294C080911B0227
:104840008130E9F480911A02282F30E084E690E06C
:10485000AC01249FC001259F900D349F900D112421
:104860009C018091290290912A02820F931F9093BC
:104870002A028093290282E080931B0273C08091F8
:104880001B028230E9F480911A02882F90E09C018B
:10489000220F331FC901880F991F880F991F820F9C
:1048A000931F9C018091290290912A02820F931FED
:1048B00090932A028093290283E080931B0252C0C6
:1048C00080911B02833009F04DC080911A02282F7D
:1048D00030E08091290290912A02820F931F9093D9
:1048E0002A02809329028091FB01813099F4209162
:1048F000290230912A028091FC019091FD01281734
:10490000390721F482E08093FB0126C083E0809385
:10491000FB0122C08091FB018230F1F480912902D9
:1049200090912A029093FD018093FC018091FC01FB
:104930009091FD01982F81E5692F0E944314809189
:10494000FC019091FD01892F9927982F82E5692F0D
:104950000E9443141092FB0110922A021092290225
:1049600010921B0210921A020F900F900F90CF918D
:10497000DF910895DF93CF93CDB7DEB780913702F3
:1049800081608093370280E062E041E00E94AB0AE0
:10499000CF91DF910895DF93CF93CDB7DEB78091AC
:1049A00037028E7F8093370280E062E040E00E9411
:1049B000AB0ACF91DF910895DF93CF93CDB7DEB7E8
:1049C0008091370282608093370280E063E041E0AB
:1049D0000E94AB0ACF91DF910895DF93CF93CDB7BB
:1049E000DEB7809137028D7F8093370280E063E0ED
:1049F00040E00E94AB0ACF91DF910895DF93CF93FF
:104A0000CDB7DEB780913702846080933702CF91B3
:104A1000DF910895DF93CF93CDB7DEB78091370252
:104A20008B7F80933702CF91DF910895DF93CF93EF
:104A3000CDB7DEB780E064E00E944B0CCF91DF91F0
:104A40000895DF93CF9300D000D000D0CDB7DEB76C
:104A500089836A838A81853009F41A829091FA01E8
:104A60008981891731F49091FB018A81891709F4B2
:104A7000B3C08A81882309F041C081E00E940B15F0
:104A80008CE00E940B158981282F30E03E832D8316
:104A90008D819E818230910529F12D813E812330C7
:104AA000310554F48D819E810097B1F02D813E81B6
:104AB00021303105A1F090C08D819E818430910517
:104AC000B9F02D813E81243031057CF08D819E81AD
:104AD0008530910581F080C00E94FB257DC00E9439
:104AE00024267AC00E94AF2677C00E940D2774C08A
:104AF0000E94722771C00E94B7276EC081E00E9499
:104B00000B158981282F30E03C832B838B819C817E
:104B10008330910509F43FC02B813C81243031055D
:104B20005CF48B819C818130910589F02B813C81E3
:104B30002230310521F150C08B819C818430910558
:104B4000B1F12B813C8125303105B9F145C08A8115
:104B5000813019F40E943D263FC08A81823019F4C9
:104B60000E94612639C08A81833019F40E947D2613
:104B700033C08A81843081F50E9496262DC08A81B7
:104B8000813019F40E94D02627C08A81823021F515
:104B90000E94E92621C08A81813019F40E942E27C3
:104BA0001BC08A818230C1F40E94472715C08A81C8
:104BB000813091F40E9493270FC08A81813011F4D3
:104BC0000E94D0278A81823011F40E94F8278A81BE
:104BD000833011F40E94202889818093FA018A8110
:104BE0008093FB0126960FB6F894DEBF0FBECDBFB3
:104BF000CF91DF910895DF93CF93CDB7DEB780E0FB
:104C000060E00E94CF1584E890E00E94991581E051
:104C100061E00E94CF158DE890E00E94991581E037
:104C200069E00E94CF1582E990E00E94991585E223
:104C30000E94521580E06EE00E94CF1582E00E9433
:104C40005215CF91DF910895DF93CF93CDB7DEB7A3
:104C500080E060E00E94CF1587E990E00E949915FE
:104C600080E06EE00E94CF1580E00E94521583E044
:104C70000E945215CF91DF910895DF93CF93CDB766
:104C8000DEB78EE00E940B1580E060E00E94CF1539
:104C90008FE990E00E94991581E062E00E94CF15B3
:104CA0008EEA90E00E94991581E06EE00E94CF1597
:104CB00080E00E94521583E00E945215CF91DF914F
:104CC0000895DF93CF93CDB7DEB78CE00E940B152C
:104CD00080E060E00E94CF1584EB90E00E9499157F
:104CE00081E06EE00E94CF1580E00E94521583E0C3
:104CF0000E945215CF91DF910895DF93CF93CDB7E6
:104D0000DEB780E060E00E94CF1584EC90E00E9466
:104D1000991581E06EE00E94CF1580E00E94521547
:104D200083E00E945215CF91DF910895DF93CF93D6
:104D3000CDB7DEB780E060E00E94CF1582ED90E055
:104D40000E94991581E06EE00E94CF1580E00E94DC
:104D5000521583E00E945215CF91DF910895DF93A1
:104D6000CF93CDB7DEB780E060E00E94CF1583EE31
:104D700090E00E94991580E06EE00E94CF1580E0DF
:104D80000E94521583E00E94521581E060E00E946B
:104D9000CF1589EE90E00E949915CF91DF9108958B
:104DA000DF93CF93CDB7DEB780E060E00E94CF15F0
:104DB00081EF90E00E94991581E06EE00E94CF158E
:104DC00080E00E94521583E00E945215CF91DF913E
:104DD0000895DF93CF93CDB7DEB78EE00E940B1519
:104DE00080E060E00E94CF158EEF90E00E94991560
:104DF00081E060E00E94CF1588E091E00E94991563
:104E000081E06EE00E94CF1580E00E94521583E0A1
:104E10000E945215CF91DF910895DF93CF93CDB7C4
:104E2000DEB780E060E00E94CF1582E191E00E9451
:104E3000991580E06EE00E94CF1580E00E94521527
:104E400083E00E94521581E060E00E94CF1589EE58
:104E500090E00E949915CF91DF910895DF93CF9351
:104E6000CDB7DEB780E060E00E94CF158AE191E027
:104E70000E94991581E06EE00E94CF1580E00E94AB
:104E8000521583E00E945215CF91DF910895DF9370
:104E9000CF93CDB7DEB78EE00E940B1580E060E0C7
:104EA0000E94CF1589E291E00E94991581E060E0AF
:104EB0000E94CF1586E391E00E94991581E069E098
:104EC0000E94CF1585E20E94521581E06EE00E949B
:104ED000CF1580E00E94521583E00E945215CF91B9
:104EE000DF910895DF93CF93CDB7DEB780E060E028
:104EF0000E94CF1580E491E00E94991580E06EE059
:104F00000E94CF1580E00E94521583E00E94521546
:104F100081E060E00E94CF1588E491E00E9499153D
:104F2000CF91DF910895DF93CF93CDB7DEB78EE0B9
:104F30000E940B1580E060E00E94CF1580E591E0B3
:104F40000E94991581E061E00E94CF158FE591E004
:104F50000E94991581E06EE00E94CF1580E00E94CA
:104F6000521583E00E945215CF91DF910895DF938F
:104F7000CF93CDB7DEB780E060E00E94CF1583E627
:104F800091E00E94991580E06EE00E94CF1581E0CB
:104F90000E94521583E00E945215CF91DF9108952F
:104FA000DF93CF93CDB7DEB78EE00E940B1580E084
:104FB00060E00E94CF1580E791E00E94991581E0A2
:104FC00061E00E94CF158DE791E00E94991580E085
:104FD0006EE00E94CF1581E00E94521583E00E948E
:104FE000521580E061E00E94CF15CF91DF910895C6
:104FF000DF93CF93CDB7DEB78EE00E940B1580E034
:1050000060E00E94CF1582E891E00E94991581E04E
:1050100061E00E94CF158DE791E00E94991580E034
:105020006EE00E94CF1581E00E94521583E00E943D
:10503000521580E061E00E94CF15CF91DF91089575
:10504000DF93CF93CDB7DEB78CE00E940B1580E0E5
:1050500060E00E94CF158BE891E00E94991580E0F6
:105060006EE00E94CF1583E00E945215CF91DF9130
:105070000895DF93CF9300D000D000D0CDB7DEB736
:105080008091FA01882341F4809135028071882350
:1050900019F40E943D29E8C08091FA01813009F09D
:1050A0005AC08091FB01282F30E03E832D838D81F3
:1050B0009E8182309105A1F12D813E812330310501
:1050C00054F48D819E81009789F02D813E8121309D
:1050D0003105E9F0C9C08D819E818330910549F188
:1050E0002D813E812430310569F1BEC080913702A7
:1050F0008870882309F4B8C081E068E00E94CF1569
:1051000080913002909131020E946929ADC0809156
:1051100035028071882309F4A7C00E94B229A4C077
:10512000809135028071882309F49EC00E94DB299A
:105130009BC0809135028071882309F495C00E943C
:105140000B2A92C0809135028071882309F48CC0AB
:105150000E943B2A89C08091FA01823051F58091EA
:10516000FB01282F30E03C832B838B819C81813095
:10517000910569F02B813C812230310589F08B81CA
:105180009C81009709F070C00E94622A6DC08091D6
:1051900035028071882309F467C00E947B2A64C0AD
:1051A000809135028071882309F45EC00E94BC2A78
:1051B0005BC08091FA01833041F58091FB01282F7B
:1051C00030E03A83298389819A818130910569F0A1
:1051D00029813A812230310581F089819A810097B5
:1051E00009F042C00E94112B3FC0809135028071AE
:1051F0008823D1F10E942A2B37C08091350280711B
:10520000882391F10E946B2B2FC08091FA0184308A
:10521000C1F48091FB01882341F4809135028071B3
:10522000882319F40E94C02B1FC08091FB0181309C
:10523000D9F48091350280718823B1F00E94D92B76
:1052400013C08091FA01853079F48091FB0181309F
:1052500021F08091FB01823039F480913502807118
:10526000882311F00E94F52B26960FB6F894DEBF26
:105270000FBECDBFCF91DF910895DF93CF93CDB710
:10528000DEB781E065E00E94CF1580913402882F5F
:1052900090E0A0E0B0E0BC01CD010E940B1680E2DE
:1052A0000E94521581E06DE00E94CF158091360278
:1052B000882F90E0A0E0B0E0BC01CD010E940B1669
:1052C00085E20E94521580E20E945215CF91DF9133
:1052D0000895DF93CF9300D0CDB7DEB79A8389834B
:1052E00089819A8128E532E0B9010E94492CCB01DD
:1052F000805D0E94521589819A812CE330E0B901CA
:105300000E94492CCB012AE030E0B9010E94492CCF
:10531000805D0E9452158AE30E94521589819A810C
:105320002CE330E0B9010E94492C2AE030E0B901B9
:105330000E94492CCB01805D0E94521589819A817F
:105340002CE330E0B9010E94492C2AE030E0B90199
:105350000E94492C805D0E9452150F900F90CF91B2
:10536000DF910895DF93CF930F92CDB7DEB7198207
:1053700080911B02823028F080911B028D5F89830F
:1053800004C080911B028E5F898381E069810E9445
:10539000CF1580911A02882F90E0A0E0B0E0BC0108
:1053A000CD010E940B1681E069810E94CF150F90FC
:1053B000CF91DF910895DF93CF9300D0CDB7DEB7C3
:1053C00081E060E00E94CF1580911A02282F30E022
:1053D0003A83298389819A818130910571F02981ED
:1053E0003A812230310571F089819A81009771F4F8
:1053F00085E991E00E94991509C08AE991E00E942F
:10540000991504C08FE991E00E9499150F900F90B3
:10541000CF91DF910895DF93CF9300D0CDB7DEB762
:1054200081E060E00E94CF1580911A02282F30E0C1
:105430003A83298389819A818130910571F029818C
:105440003A812230310571F089819A81009771F497
:1054500085E991E00E94991509C08AE991E00E94CE
:10546000991504C08FE991E00E9499150F900F9053
:10547000CF91DF910895DF93CF9300D0CDB7DEB702
:1054800081E060E00E94CF1580911A02282F30E061
:105490003A83298389819A81009731F029813A8161
:1054A0002130310531F009C085E991E00E9499155C
:1054B00004C08AE991E00E9499150F900F90CF9156
:1054C000DF910895DF93CF93CDB7DEB781E067E03A
:1054D0000E94CF15809137028270882329F484EAD4
:1054E00091E00E94991504C088EA91E00E94991504
:1054F000CF91DF910895DF93CF9300D0CDB7DEB782
:1055000081E060E00E94CF1580911A02282F30E0E0
:105510003A83298389819A8181309105D1F029814B
:105520003A81223031052CF489819A81009761F00B
:105530001EC029813A812230310581F089819A810A
:105540008330910581F013C08CEA91E00E94991597
:105550000EC083EB91E00E94991509C08AEB91E09F
:105560000E94991504C081EC91E00E9499150F905A
:105570000F90CF91DF910895DF93CF930F92CDB726
:10558000DEB7198280911B02823080F480911B0269
:10559000882339F480911A02882319F482E08093D9
:1055A0001A0280911B02895F898304C080911B02CB
:1055B0008B5F898380911B028230C1F480912B0222
:1055C0008823A1F481E080932B0280E065E00E94B3
:1055D000CF1588EC91E00E94991581E065E00E946A
:1055E000CF158DEC91E00E9499150AC080911B02A5
:1055F000833031F480912B02813011F410922B0210
:1056000081E069810E94CF1580911A02805D0E941D
:10561000521581E069810E94CF150F90CF91DF91E3
:105620000895DF93CF93CDB7DEB781E067E00E94A6
:10563000CF15809137028170882329F484EA91E0A4
:105640000E94991504C088EA91E00E949915CF91B3
:10565000DF910895DF93CF9300D0CDB7DEB781E01F
:1056600060E00E94CF1580911A02282F30E03A8323
:10567000298389819A8181309105D1F029813A81EC
:10568000223031052CF489819A81009761F01EC087
:1056900029813A812230310581F089819A818330D4
:1056A000910581F013C08CEA91E00E9499150EC01B
:1056B00083EB91E00E94991509C08AEB91E00E946A
:1056C000991504C081EC91E00E9499150F900F90FC
:1056D000CF91DF910895DF93CF930F92CDB7DEB7CF
:1056E000198280911B02823080F480911B028823F2
:1056F00039F480911A02882319F482E080931A0207
:1057000080911B02895F898304C080911B028B5F9B
:10571000898380911B028230C1F480912C028823FE
:10572000A1F481E080932C0280E067E00E94CF1515
:1057300082ED91E00E94991581E065E00E94CF150D
:105740008DEC91E00E9499150AC080911B02833074
:1057500031F480912C02813011F410922C0281E0FE
:1057600069810E94CF1580911A02805D0E945215B6
:1057700081E069810E94CF150F90CF91DF9108954C
:10578000DF93CF93CDB7DEB781E067E00E94CF15FE
:1057900080913802882F90E0A0E0B0E0BC01CD01FC
:1057A0000E940B1687ED91E00E949915CF91DF9131
:1057B0000895DF93CF93CDB7DEB780911B02982F6A
:1057C0009F5F81E0692F0E94CF1580911A02805D52
:1057D0000E94521580911B02982F9F5F81E0692FD4
:1057E0000E94CF15CF91DF910895DF93CF93CDB76E
:1057F000DEB780911B02982F9F5F81E0692F0E9486
:10580000CF1580911A02805D0E94521580911B0273
:10581000982F9F5F81E0692F0E94CF15CF91DF9174
:105820000895DF93CF93CDB7DEB70E945F170E9434
:10583000EF1780E090E0CF91DF910895629FD00153
:10584000739FF001829FE00DF11D649FE00DF11D3B
:10585000929FF00D839FF00D749FF00D659FF00DEA
:105860009927729FB00DE11DF91F639FB00DE11DD7
:10587000F91FBD01CF0111240895991B79E004C0DF
:10588000991F961708F0961B881F7A95C9F780957F
:105890000895AA1BBB1B51E107C0AA1FBB1FA61777
:1058A000B70710F0A61BB70B881F991F5A95A9F7C9
:1058B00080959095BC01CD01089597FB092E072690
:1058C0000AD077FD04D0E5DF06D000201AF47095E9
:1058D00061957F4F0895F6F7909581959F4F0895B4
:1058E000A1E21A2EAA1BBB1BFD010DC0AA1FBB1FE4
:1058F000EE1FFF1FA217B307E407F50720F0A21B56
:10590000B30BE40BF50B661F771F881F991F1A94C2
:1059100069F760957095809590959B01AC01BD01EC
:10592000CF01089597FB092E05260ED057FD04D010
:10593000D7DF0AD0001C38F450954095309521955A
:105940003F4F4F4F5F4F0895F6F7909580957095B4
:0E59500061957F4F8F4F9F4F0895F894FFCFC2
:10595E00303030300057726F6E672C747279206160
:10596E006761696E00456E746572207468652050BB
:10597E00494E3A005B5374617475735D0054203D5B
:10598E0020004C203D20005B54696D65725D005413
:10599E00696D65722053657474696E673A003030B4
:1059AE003A30300054696D6572202D3E204C696787
:1059BE0068743A004C69676874202D3E2046616E0B
:1059CE003A0054696D6572202D3E2042757A7A65D3
:1059DE00723A005B46616E5D0053746174653A20E5
:1059EE000046616E2053657474696E673A004661B5
:1059FE006E202D3E204F4E0069662054203E2032F0
:105A0E0030005B4C696768745D004C696768742090
:105A1E0053657474696E673A004C69676874202D1B
:105A2E003E204F4646006966204C203E2032300014
:105A3E005B536572766F5D00416E676C653A200050
:105A4E00536572766F2053657474696E673A0030D1
:105A5E003030005B50494E2D4368616E67655D00C6
:105A6E0043757272656E742050494E3A0030303074
:105A7E0030004E65772050494E3A0057726F6E6770
:105A8E002050696E004F4E2020004F464620005396
:105A9E006B6970004F4646004F4E20004F4E20203F
:105AAE002020004F46462020200053656E736F72F3
:105ABE000043616E63656C004F46463A003C2031F0
:105ACE0030004F4E3A2000202000040A1100110A27
