:100000000C942A000C94610A0C9473090C948508D2
:100010000C9447000C9447000C9447000C945B032D
:100020000C948E030C94C1030C9441050C94870529
:100030000C9447000C948A010C9447000C94BD0169
:100040000C942A130C9447000C9447000C94BD07A1
:100050000C94470011241FBECFE5D8E0DEBFCDBF12
:1000600011E0A0E6B0E0E2E2F5E602C005900D92F4
:10007000A23FB107D9F712E0A2EFB1E001C01D9293
:10008000A633B107E1F70E94F3310C948F320C9440
:100090000000DF93CF930F92CDB7DEB71982ABE2AA
:1000A000B0E0EBE2F0E080818D7F8C93ABE2B0E0DA
:1000B000EBE2F0E080818E7F8C93AAE2B0E0EAE28E
:1000C000F0E080818B7F8C93AAE2B0E0EAE2F0E07E
:1000D00080818C9389818068898389818F7B8983E2
:1000E00089818F7C89838981877F898389818660E3
:1000F000898389818E7F8983E0E4F0E08981808330
:10010000198289818F778983E0E4F0E08981808397
:10011000E9E2F0E083E38083AAE2B0E0EAE2F0E023
:10012000808180688C93AAE2B0E0EAE2F0E080810E
:100130008F7B8C93AAE2B0E0EAE2F0E080818F7DD1
:100140008C93AAE2B0E0EAE2F0E0808180618C93D7
:10015000AAE2B0E0EAE2F0E08081877F8C930F9022
:10016000CF91DF910895DF93CF9300D00F92CDB759
:10017000DEB79B838A8319828A819B81009719F459
:1001800082E0898318C0EBE2F0E080818823DCF70D
:10019000EA81FB8111821082EA81FB812081318119
:1001A000ECE2F0E08081882F90E0822B932BEA81B3
:1001B000FB819183808389810F900F900F90CF9165
:1001C000DF910895DF93CF9300D00F92CDB7DEB7C4
:1001D0009B838A8319828A819B8122E080309207E7
:1001E00018F081E0898310C0EBE2F0E08081829515
:1001F00086958770882F90E0817090700097A1F3AA
:10020000ECE2F0E08A81808389810F900F900F905B
:10021000CF91DF910895DF93CF9300D000D00F925C
:10022000CDB7DEB79D838C831B828C819D819A83A1
:10023000898389819A81009719F482E08B8310C0A9
:10024000E981FA811082EC81FD811082E981FA81D5
:100250009081ECE2F0E08081892BE981FA81808352
:100260008B810F900F900F900F900F90CF91DF9197
:100270000895DF93CF9300D00F92CDB7DEB79B8365
:100280008A8319828A819B8122E08030920718F04C
:1002900081E0898304C0ECE2F0E08A818083898177
:1002A0000F900F900F90CF91DF910895DF93CF9330
:1002B00000D00F92CDB7DEB79B838A8319828A81E3
:1002C0009B81009731F08A819B819093F301809309
:1002D000F20189810F900F900F90CF91DF910895D7
:1002E000DF93CF9300D00F92CDB7DEB79B838A8385
:1002F00019828A819B81009731F08A819B8190933A
:10030000F5018093F40189810F900F900F90CF91A8
:10031000DF9108951F920F920FB60F9211242F9321
:100320003F934F935F936F937F938F939F93AF937D
:10033000BF93EF93FF93DF93CF93CDB7DEB7809159
:10034000F2019091F301009729F0E091F201F09110
:10035000F3010995CF91DF91FF91EF91BF91AF919B
:100360009F918F917F916F915F914F913F912F91CD
:100370000F900FBE0F901F9018951F920F920FB6FF
:100380000F9211242F933F934F935F936F937F931B
:100390008F939F93AF93BF93EF93FF93DF93CF938D
:1003A000CDB7DEB78091F4019091F501009729F067
:1003B000E091F401F091F5010995CF91DF91FF9162
:1003C000EF91BF91AF919F918F917F916F915F91CD
:1003D0004F913F912F910F900FBE0F901F90189546
:1003E000DF93CF93CDB7DEB7AFE4B0E0EFE4F0E05A
:1003F0008081982FEFE4F0E080818C7F8260892BF0
:100400008C93AEE4B0E0EEE4F0E08081982FEEE46F
:10041000F0E080818861892B8C93AFE4B0E0EFE459
:10042000F0E080818F7380688C93AFE4B0E0EFE4FC
:10043000F0E080818F7C8C93AEE4B0E0EEE4F0E0FD
:100440008081887F82608C93A9E5B0E0E9E5F0E0E7
:1004500080818B7F8C93A9E5B0E0E9E5F0E08081B5
:100460008F7E8C93A9E5B0E0E9E5F0E08081877F9D
:100470008C93CF91DF910895DF93CF9300D0CDB7C8
:10048000DEB79A838983ECE4F0E089819A819183D5
:1004900080830F900F90CF91DF910895DF93CF93DA
:1004A00000D0CDB7DEB79A838983E6E4F0E0898196
:1004B0009A81918380830F900F90CF91DF9108955F
:1004C000DF93CF9300D0CDB7DEB79A838983EAE478
:1004D000F0E089819A81918380830F900F90CF9172
:1004E000DF910895DF93CF9300D0CDB7DEB79A8325
:1004F0008983E8E4F0E089819A81918380830F9079
:100500000F90CF91DF910895DF93CF93CDB7DEB7F2
:10051000ECE4F0E080819181CF91DF910895DF9349
:10052000CF93CDB7DEB7E6E4F0E080819181CF9143
:10053000DF910895DF93CF93CDB7DEB7EAE4F0E023
:1005400080819181CF91DF910895DF93CF93CDB7D3
:10055000DEB7E8E4F0E080819181CF91DF910895EA
:10056000DF93CF93CDB7DEB7A9E5B0E0E9E5F0E0E2
:10057000808184608C93CF91DF910895DF93CF9336
:10058000CDB7DEB7A9E5B0E0E9E5F0E080818B7F8B
:100590008C93CF91DF910895DF93CF93CDB7DEB7E2
:1005A000A9E5B0E0E9E5F0E0808180618C93CF912E
:1005B000DF910895DF93CF93CDB7DEB7A9E5B0E023
:1005C000E9E5F0E080818F7E8C93CF91DF910895F3
:1005D000DF93CF93CDB7DEB7A9E5B0E0E9E5F0E072
:1005E000808188608C93CF91DF910895DF93CF93C2
:1005F000CDB7DEB7A9E5B0E0E9E5F0E08081877F1F
:100600008C93CF91DF910895DF93CF9300D00F9219
:10061000CDB7DEB79B838A8319828A819B8100973D
:1006200019F482E0898306C08A819B819093F70147
:100630008093F60189810F900F900F90CF91DF91F9
:100640000895DF93CF9300D00F92CDB7DEB79B8391
:100650008A8319828A819B81009719F482E08983B9
:1006600006C08A819B819093F9018093F80189816A
:100670000F900F900F90CF91DF910895DF93CF935C
:1006800000D00F92CDB7DEB79B838A8319828A810F
:100690009B81009719F482E0898306C08A819B813F
:1006A0009093FB018093FA0189810F900F900F9036
:1006B000CF91DF9108951F920F920FB60F921124E0
:1006C0002F933F934F935F936F937F938F939F935A
:1006D000AF93BF93EF93FF93DF93CF93CDB7DEB785
:1006E0008091F8019091F901009729F0E091F801CB
:1006F000F091F9010995CF91DF91FF91EF91BF91B1
:10070000AF919F918F917F916F915F914F913F91A9
:100710002F910F900FBE0F901F9018951F920F9260
:100720000FB60F9211242F933F934F935F936F93C4
:100730007F938F939F93AF93BF93EF93FF93DF9339
:10074000CF93CDB7DEB78091FA019091FB0100976E
:1007500029F0E091FA01F091FB010995CF91DF9129
:10076000FF91EF91BF91AF919F918F917F916F9189
:100770005F914F913F912F910F900FBE0F901F905F
:1007800018951F920F920FB60F9211242F933F933B
:100790004F935F936F937F938F939F93AF93BF9389
:1007A000EF93FF93DF93CF93CDB7DEB78091F60140
:1007B0009091F701009729F0E091F601F091F7018F
:1007C0000995CF91DF91FF91EF91BF91AF919F91EB
:1007D0008F917F916F915F914F913F912F910F90EA
:1007E0000FBE0F901F901895DF93CF93CDB7DEB754
:1007F000A3E5B0E0E3E5F0E080818F7B8C93A3E597
:10080000B0E0E3E5F0E0808188608C93A3E5B0E0A0
:10081000E3E5F0E080818F7C8C93E3E5F0E080817C
:10082000882F90E080739070009729F081E063E05A
:1008300041E00E94C70DA3E5B0E0E3E5F0E0808170
:10084000887F83608C93A9E5B0E0E9E5F0E08081E2
:100850008E7F8C93A9E5B0E0E9E5F0E080818D7FA3
:100860008C93CF91DF910895DF93CF9300D0CDB7D4
:10087000DEB78A8319828A81883018F081E0898303
:100880000AC0A3E5B0E0E3E5F0E08081982F987F0F
:100890008A81892B8C9389810F900F90CF91DF9162
:1008A0000895DF93CF930F92CDB7DEB78983E2E54A
:1008B000F0E0898180830F90CF91DF910895DF93DD
:1008C000CF9300D00F92CDB7DEB79B838A83198276
:1008D0008A819B81009719F482E0898306C0E2E552
:1008E000F0E08081EA81FB81808389810F900F9005
:1008F0000F90CF91DF910895DF93CF930F92CDB7F3
:10090000DEB78983ECE5F0E0898180830F90CF9199
:10091000DF910895DF93CF93CDB7DEB7A9E5B0E0BF
:10092000E9E5F0E0808181608C93CF91DF910895BB
:10093000DF93CF93CDB7DEB7A9E5B0E0E9E5F0E00E
:1009400080818E7F8C93CF91DF910895DF93CF9339
:10095000CDB7DEB7A9E5B0E0E9E5F0E080818260DF
:100960008C93CF91DF910895DF93CF93CDB7DEB70E
:10097000A9E5B0E0E9E5F0E080818D7F8C93CF912F
:10098000DF910895DF93CF9300D00F92CDB7DEB7FC
:100990009B838A8319828A819B81009719F482E064
:1009A000898306C08A819B819093FD018093FC011D
:1009B00089810F900F900F90CF91DF910895DF9371
:1009C000CF9300D00F92CDB7DEB79B838A83198275
:1009D0008A819B81009719F482E0898306C08A810D
:1009E0009B819093FF018093FE0189810F900F906E
:1009F0000F90CF91DF910895DF93CF9300D000D077
:100A0000CDB7DEB769837A838B839C83E2E5F0E020
:100A10008081873958F089819A81AB81BC810196A8
:100A2000A11DB11D89839A83AB83BC8389819A817F
:100A3000AB81BC810296A11DB11D89839A83AB83D2
:100A4000BC831092000210920102109202021092D6
:100A50000302209100023091010240910202509164
:100A6000030289819A81AB81BC81281739074A0723
:100A70005B0779F70F900F900F900F90CF91DF9158
:100A800008951F920F920FB60F9211242F933F9348
:100A90004F935F936F937F938F939F93AF93BF9386
:100AA000EF93FF93DF93CF93CDB7DEB78091000232
:100AB00090910102A0910202B09103020196A11D42
:100AC000B11D8093000290930102A0930202B093A3
:100AD00003028091FE019091FF01009729F0E091BF
:100AE000FE01F091FF010995CF91DF91FF91EF9108
:100AF000BF91AF919F918F917F916F915F914F9136
:100B00003F912F910F900FBE0F901F9018951F923D
:100B10000F920FB60F9211242F933F934F935F9331
:100B20006F937F938F939F93AF93BF93EF93FF93B5
:100B3000DF93CF93CDB7DEB78091FC019091FD019B
:100B4000009729F0E091FC01F091FD010995CF910A
:100B5000DF91FF91EF91BF91AF919F918F917F9125
:100B60006F915F914F913F912F910F900FBE0F901A
:100B70001F901895DF93CF93CDB7DEB7E0E2F0E09A
:100B800082E08083A1E2B0E0E1E2F0E080818C7F4E
:100B90008C93A6E5B0E0E6E5F0E080818F7B8C9356
:100BA000A2E2B0E0E2E2F0E080818E7F8C93A2E2EC
:100BB000B0E0E2E2F0E08081817084618C93A6E590
:100BC000B0E0E6E5F0E0808184608C93A6E5B0E0DB
:100BD000E6E5F0E080818E7F8C93CF91DF910895E0
:100BE000DF93CF93CDB7DEB7A6E5B0E0E6E5F0E062
:100BF000808180648C93A2E2B0E0E2E2F0E0808148
:100C00008E7F8C93A2E2B0E0E2E2F0E0808181701E
:100C100088628C93A6E5B0E0E6E5F0E08081846030
:100C20008C93A6E5B0E0E6E5F0E080818E7F8C93C2
:100C3000CF91DF910895DF93CF930F92CDB7DEB7B9
:100C40001982A6E5B0E0E6E5F0E0808180628C9351
:100C5000A6E5B0E0E6E5F0E0808180688C93A6E54B
:100C6000B0E0E6E5F0E0808184608C93E6E5F0E0BA
:100C700080818823DCF7E1E2F0E08081882F90E03A
:100C8000887F90708830910511F082E08983898196
:100C90000F90CF91DF910895DF93CF930F92CDB74F
:100CA000DEB71982A6E5B0E0E6E5F0E0808180627B
:100CB0008C93A6E5B0E0E6E5F0E0808180688C9357
:100CC000A6E5B0E0E6E5F0E0808184608C93E6E59F
:100CD000F0E080818823DCF7E1E2F0E08081882F7A
:100CE00090E0887F90708031910511F083E08983D6
:100CF00089810F90CF91DF910895DF93CF9300D03A
:100D0000CDB7DEB78A831982E3E2F0E08A81880FEB
:100D10008083A3E2B0E0E3E2F0E080818E7F8C93F9
:100D2000A6E5B0E0E6E5F0E080818F7D8C93A6E556
:100D3000B0E0E6E5F0E0808180688C93A6E5B0E065
:100D4000E6E5F0E0808184608C93E6E5F0E0808168
:100D50008823DCF7E1E2F0E08081882F90E0887F53
:100D600090708831910511F084E0898389810F901A
:100D70000F90CF91DF910895DF93CF9300D0CDB73F
:100D8000DEB78A831982E3E2F0E08A81880F8083EC
:100D9000A3E2B0E0E3E2F0E0808181608C93A6E51D
:100DA000B0E0E6E5F0E080818F7D8C93A6E5B0E0D1
:100DB000E6E5F0E0808180688C93A6E5B0E0E6E5AA
:100DC000F0E0808184608C93E6E5F0E08081882308
:100DD000DCF7E1E2F0E08081882F90E0887F90707E
:100DE0008034910511F084E0898389810F900F9000
:100DF000CF91DF910895DF93CF9300D0CDB7DEB7C9
:100E00008A831982E3E2F0E08A818083A6E5B0E07C
:100E1000E6E5F0E0808180688C93A6E5B0E0E6E549
:100E2000F0E0808184608C93E6E5F0E080818823A7
:100E3000DCF7E1E2F0E08081882F90E0887F90701D
:100E40008832910511F085E0898389810F900F9098
:100E5000CF91DF910895DF93CF9300D00F92CDB75C
:100E6000DEB79B838A8319828A819B81009719F45C
:100E700081E0898326C0A6E5B0E0E6E5F0E0808168
:100E800084608C93A6E5B0E0E6E5F0E080818068C0
:100E90008C93E6E5F0E080818823DCF7E1E2F0E086
:100EA0008081882F90E0887F90708835910519F0B7
:100EB00086E0898306C0E3E2F0E08081EA81FB817D
:100EC000808389810F900F900F90CF91DF910895CB
:100ED000DF93CF93CDB7DEB7A6E5B0E0E6E5F0E06F
:100EE000808180618C93A6E5B0E0E6E5F0E080814A
:100EF00080688C93A6E5B0E0E6E5F0E08081846050
:100F00008C93CF91DF910895DF93CF93CDB7DEB768
:100F1000A6E5B0E0E6E5F0E0808181608C93CF91BA
:100F2000DF910895DF93CF93CDB7DEB7A6E5B0E0AC
:100F3000E6E5F0E080818E7F8C93CF91DF9108957C
:100F4000DF93CF9300D00F92CDB7DEB79B838A8318
:100F500019828A819B81009719F482E0898306C0F7
:100F60008A819B81909305028093040289810F906E
:100F70000F900F90CF91DF9108951F920F920FB6AF
:100F80000F9211242F933F934F935F936F937F930F
:100F90008F939F93AF93BF93EF93FF93DF93CF9381
:100FA000CDB7DEB78091040290910502009729F039
:100FB000E0910402F09105020995CF91DF91FF9134
:100FC000EF91BF91AF919F918F917F916F915F91C1
:100FD0004F913F912F910F900FBE0F901F9018953A
:100FE000DF93CF93CDB7DEB7AFE5B0E0EFE5F0E04C
:100FF000808180688C93CF91DF910895DF93CF93A8
:10100000CDB7DEB7AFE5B0E0EFE5F0E080818F77F8
:101010008C93CF91DF910895DF93CF93CDB7DEB757
:10102000A4E5B0E0E4E5F0E0808180648C93CF91AA
:10103000DF910895DF93CF93CDB7DEB7ABE5B0E096
:10104000EBE5F0E0808180628C93CF91DF91089591
:10105000DF93CF93CDB7DEB7ABE5B0E0EBE5F0E0E3
:1010600080818F7D8C93CF91DF910895DF93CF9313
:1010700000D000D0CDB7DEB78A8319828A81282FAD
:1010800030E03C832B838B819C818230910531F051
:101090002B813C812330310549F010C0A4E5B0E03C
:1010A000E4E5F0E080818F7B8C930AC0A4E5B0E09A
:1010B000E4E5F0E0808180648C9302C081E0898364
:1010C00089810F900F900F900F90CF91DF9108952D
:1010D000DF93CF9300D00F92CDB7DEB79B838A8387
:1010E00019828A819B81009719F482E0898306C066
:1010F0008A819B81909307028093060289810F90D9
:101100000F900F90CF91DF9108951F920F920FB61D
:101110000F9211242F933F934F935F936F937F937D
:101120008F939F93AF93BF93EF93FF93DF93CF93EF
:10113000CDB7DEB78091060290910702009729F0A3
:10114000E0910602F09107020995CF91DF91FF919E
:10115000EF91BF91AF919F918F917F916F915F912F
:101160004F913F912F910F900FBE0F901F901895A8
:10117000DF93CF93CDB7DEB7A5E5B0E0E5E5F0E0CE
:10118000808184608C93A5E5B0E0E5E5F0E08081A6
:1011900088608C93CF91DF910895DF93CF93CDB783
:1011A000DEB7ABE5B0E0EBE5F0E0808180688C93E2
:1011B000CF91DF910895DF93CF93CDB7DEB7ABE545
:1011C000B0E0EBE5F0E080818F778C93CF91DF91F9
:1011D0000895DF93CF9300D000D0CDB7DEB78A83D8
:1011E00019828A81282F30E03C832B838B819C815C
:1011F0008130910521F12B813C81223031052CF485
:101200008B819C81009761F047C02B813C8122300B
:10121000310521F18B819C818330910571F13CC0B6
:10122000A5E5B0E0E5E5F0E080818B7F8C93A5E556
:10123000B0E0E5E5F0E08081877F8C932FC0A5E5E5
:10124000B0E0E5E5F0E0808184608C93A5E5B0E056
:10125000E5E5F0E08081877F8C9320C0A5E5B0E0D4
:10126000E5E5F0E080818B7F8C93A5E5B0E0E5E5D6
:10127000F0E0808188608C9311C0A5E5B0E0E5E5E1
:10128000F0E0808184608C93A5E5B0E0E5E5F0E0D6
:10129000808188608C9302C081E0898389810F906E
:1012A0000F900F900F90CF91DF910895DF93CF9320
:1012B00000D00F92CDB7DEB79B838A8319828A81D3
:1012C0009B81009719F482E0898306C08A819B8103
:1012D000909309028093080289810F900F900F90DC
:1012E000CF91DF9108951F920F920FB60F921124A4
:1012F0002F933F934F935F936F937F938F939F931E
:10130000AF93BF93EF93FF93DF93CF93CDB7DEB748
:101310008091080290910902009729F0E09108025B
:10132000F09109020995CF91DF91FF91EF91BF9163
:10133000AF919F918F917F916F915F914F913F916D
:101340002F910F900FBE0F901F901895DF93CF93A2
:10135000CDB7DEB7A5E5B0E0E5E5F0E080818160DE
:101360008C93A5E5B0E0E5E5F0E0808182608C93A8
:10137000CF91DF910895DF93CF93CDB7DEB7ABE583
:10138000B0E0EBE5F0E0808180648C93CF91DF9159
:101390000895DF93CF93CDB7DEB7ABE5B0E0EBE5D3
:1013A000F0E080818F7B8C93CF91DF910895DF9364
:1013B000CF9300D000D0CDB7DEB78A8319828A815F
:1013C000282F30E03C832B838B819C8181309105D9
:1013D00021F12B813C81223031052CF48B819C81C1
:1013E000009761F047C02B813C812230310521F10B
:1013F0008B819C818330910571F13CC0A5E5B0E003
:10140000E5E5F0E080818E7F8C93A5E5B0E0E5E531
:10141000F0E080818D7F8C932FC0A5E5B0E0E5E5FD
:10142000F0E0808181608C93A5E5B0E0E5E5F0E037
:1014300080818D7F8C9320C0A5E5B0E0E5E5F0E0EC
:1014400080818E7F8C93A5E5B0E0E5E5F0E08081BA
:1014500082608C9311C0A5E5B0E0E5E5F0E0808105
:1014600081608C93A5E5B0E0E5E5F0E080818260E5
:101470008C9302C081E0898389810F900F900F9037
:101480000F90CF91DF910895DF93CF9300D00F920B
:10149000CDB7DEB79B838A8319828A819B810097AF
:1014A00019F482E0898306C08A819B8190930B02A4
:1014B00080930A0289810F900F900F90CF91DF9156
:1014C00008951F920F920FB60F9211242F933F93FE
:1014D0004F935F936F937F938F939F93AF93BF933C
:1014E000EF93FF93DF93CF93CDB7DEB780910A02DE
:1014F00090910B02009729F0E0910A02F0910B0203
:101500000995CF91DF91FF91EF91BF91AF919F919D
:101510008F917F916F915F914F913F912F910F909C
:101520000FBE0F901F901895DF93CF93CDB7DEB706
:10153000EAE3F0E08DE78083E7E3F0E08BEF808380
:10154000E4E3F0E08FEF8083E1E3F0E082EF80837B
:10155000CF91DF910895DF93CF9300D000D000D0DA
:10156000CDB7DEB78A836B834C8319828B81883039
:1015700018F081E08983ECC08A81282F30E03E8317
:101580002D838D819E818130910509F449C02D8183
:101590003E81223031052CF48D819E81009771F0BF
:1015A000D5C02D813E812230310509F46BC08D817B
:1015B0009E818330910509F497C0C8C08C8188232F
:1015C000A9F4ABE3B0E0EBE3F0E08081482F8B813E
:1015D000282F30E081E090E0022E02C0880F991F92
:1015E0000A94E2F7809584238C93B2C08C81813079
:1015F000A1F4ABE3B0E0EBE3F0E08081482F8B8116
:10160000282F30E081E090E0022E02C0880F991F61
:101610000A94E2F7842B8C939BC081E0898398C065
:101620008C818823A9F4A8E3B0E0E8E3F0E08081AE
:10163000482F8B81282F30E081E090E0022E02C0FD
:10164000880F991F0A94E2F7809584238C9380C0B9
:101650008C818130A1F4A8E3B0E0E8E3F0E0808180
:10166000482F8B81282F30E081E090E0022E02C0CD
:10167000880F991F0A94E2F7842B8C9369C081E04C
:10168000898366C08C818823A9F4A5E3B0E0E5E3F3
:10169000F0E08081482F8B81282F30E081E090E0BE
:1016A000022E02C0880F991F0A94E2F780958423C6
:1016B0008C934EC08C818130A1F4A5E3B0E0E5E3CA
:1016C000F0E08081482F8B81282F30E081E090E08E
:1016D000022E02C0880F991F0A94E2F7842B8C9384
:1016E00037C081E0898334C08C818823A9F4A2E3C8
:1016F000B0E0E2E3F0E08081482F8B81282F30E0DA
:1017000081E090E0022E02C0880F991F0A94E2F750
:10171000809584238C931CC08C818130A1F4A2E33A
:10172000B0E0E2E3F0E08081482F8B81282F30E0A9
:1017300081E090E0022E02C0880F991F0A94E2F720
:10174000842B8C9305C081E0898302C081E089836A
:10175000898126960FB6F894DEBF0FBECDBFCF911C
:10176000DF910895DF93CF93CDB7DEB727970FB6FC
:10177000F894DEBF0FBECDBF8A836B835D834C833D
:1017800019828B81883018F081E089837AC08C813E
:101790009D81009719F482E0898373C08A81282F84
:1017A00030E03F832E834E815F814130510559F1F6
:1017B0008E819F818230910534F42E813F812115E5
:1017C000310569F05CC04E815F814230510579F18D
:1017D0008E819F818330910509F43DC050C0E9E3BB
:1017E000F0E08081282F30E08B81882F90E0A901E4
:1017F00002C0559547958A95E2F7CA018170EC8140
:10180000FD8180833EC0E6E3F0E08081282F30E058
:101810008B81882F90E0A90102C0559547958A9544
:10182000E2F7CA018170EC81FD8180832AC0E3E385
:10183000F0E08081282F30E08B81882F90E0A90193
:1018400002C0559547958A95E2F7CA018170EC81EF
:10185000FD81808316C0E0E3F0E08081282F30E036
:101860008B81882F90E0A90102C0559547958A95F4
:10187000E2F7CA018170EC81FD81808302C081E0C2
:101880008983898127960FB6F894DEBF0FBECDBF3E
:10189000CF91DF910895DF93CF9300D000D00F92C6
:1018A000CDB7DEB78A836B8319828B81883018F0BD
:1018B00081E0898371C08A81282F30E03D832C83A9
:1018C0008C819D818130910549F12C813D812230AF
:1018D00031052CF48C819D81009761F05BC02C81D7
:1018E0003D812230310571F18C819D8183309105DC
:1018F000E9F150C0ABE3B0E0EBE3F0E08081482FCA
:101900008B81282F30E081E090E0022E02C0880F0A
:10191000991F0A94E2F784278C933EC0A8E3B0E0B5
:10192000E8E3F0E08081482F8B81282F30E081E0D0
:1019300090E0022E02C0880F991F0A94E2F78427D4
:101940008C932AC0A5E3B0E0E5E3F0E08081482F66
:101950008B81282F30E081E090E0022E02C0880FBA
:10196000991F0A94E2F784278C9316C0A2E3B0E093
:10197000E2E3F0E08081482F8B81282F30E081E086
:1019800090E0022E02C0880F991F0A94E2F7842784
:101990008C9302C081E0898389810F900F900F9012
:1019A0000F900F90CF91DF910895DF93CF9300D0E8
:1019B00000D00F92CDB7DEB78A836B8319828A81FC
:1019C000282F30E03D832C838C819D8181309105CF
:1019D000D1F02C813D81223031052CF48C819D8108
:1019E000009761F01FC02C813D812230310581F0CC
:1019F0008C819D818330910581F014C0EBE3F0E090
:101A00008B81808311C0E8E3F0E08B8180830CC080
:101A1000E5E3F0E08B81808307C0E2E3F0E08B81B7
:101A2000808302C081E0898389810F900F900F909D
:101A30000F900F90CF91DF910895DF93CF9300D057
:101A400000D000D0CDB7DEB78A837C836B83198248
:101A50008B819C81009719F482E089833DC08A8143
:101A6000282F30E03E832D838D819E81813091052A
:101A7000E1F02D813E81223031052CF48D819E8153
:101A8000009761F027C02D813E8122303105A1F001
:101A90008D819E8183309105B1F01CC0E9E3F0E0B7
:101AA0008081EB81FC81808317C0E6E3F0E08081D8
:101AB000EB81FC81808310C0E3E3F0E08081EB8167
:101AC000FC81808309C0E0E3F0E08081EB81FC8150
:101AD000808302C081E08983898126960FB6F894BD
:101AE000DEBF0FBECDBFCF91DF910895DF93CF93BF
:101AF00000D000D0CDB7DEB78A8319828A81282F23
:101B000030E03C832B838B819C8181309105E9F00F
:101B10002B813C81223031052CF48B819C810097F4
:101B200061F02BC02B813C8122303105B1F08B81DB
:101B30009C8183309105C9F020C0ABE3B0E0EBE3BA
:101B4000F0E0808180958C931AC0A8E3B0E0E8E3D0
:101B5000F0E0808180958C9312C0A5E3B0E0E5E3CE
:101B6000F0E0808180958C930AC0A2E3B0E0E2E3CC
:101B7000F0E0808180958C9302C081E08983898127
:101B80000F900F900F900F90CF91DF910895DF93FA
:101B9000CF9300D000D000D0CDB7DEB78A836B835F
:101BA0004C8319828B81883018F081E08983ECC0E6
:101BB0008A81282F30E03E832D838D819E81813064
:101BC000910509F449C02D813E81223031052CF464
:101BD0008D819E81009771F0D5C02D813E8122308C
:101BE000310509F46BC08D819E818330910509F424
:101BF00097C0C8C08C818823A9F4AAE3B0E0EAE3C7
:101C0000F0E08081482F8B81282F30E081E090E048
:101C1000022E02C0880F991F0A94E2F78095842350
:101C20008C93B2C08C818130A1F4AAE3B0E0EAE3E6
:101C3000F0E08081482F8B81282F30E081E090E018
:101C4000022E02C0880F991F0A94E2F7842B8C930E
:101C50009BC081E0898398C08C818823A9F4A7E385
:101C6000B0E0E7E3F0E08081482F8B81282F30E05F
:101C700081E090E0022E02C0880F991F0A94E2F7DB
:101C8000809584238C9380C08C818130A1F4A7E35C
:101C9000B0E0E7E3F0E08081482F8B81282F30E02F
:101CA00081E090E0022E02C0880F991F0A94E2F7AB
:101CB000842B8C9369C081E0898366C08C818823E2
:101CC000A9F4A4E3B0E0E4E3F0E08081482F8B8145
:101CD000282F30E081E090E0022E02C0880F991F8B
:101CE0000A94E2F7809584238C934EC08C818130D6
:101CF000A1F4A4E3B0E0E4E3F0E08081482F8B811D
:101D0000282F30E081E090E0022E02C0880F991F5A
:101D10000A94E2F7842B8C9337C081E0898334C026
:101D20008C818823A9F4A1E3B0E0E1E3F0E08081B5
:101D3000482F8B81282F30E081E090E0022E02C0F6
:101D4000880F991F0A94E2F7809584238C931CC016
:101D50008C818130A1F4A1E3B0E0E1E3F0E0808187
:101D6000482F8B81282F30E081E090E0022E02C0C6
:101D7000880F991F0A94E2F7842B8C9305C081E0A9
:101D8000898302C081E08983898126960FB6F89401
:101D9000DEBF0FBECDBFCF91DF910895DF93CF930C
:101DA000CDB7DEB727970FB6F894DEBF0FBECDBF15
:101DB0008A836B835D834C8319828B81883018F012
:101DC00081E089837AC08C819D81009719F482E03B
:101DD000898373C08A81282F30E03F832E834E8110
:101DE0005F814130510559F18E819F81823091058B
:101DF00034F42E813F812115310569F05CC04E819C
:101E00005F814230510579F18E819F818330910548
:101E100009F43DC050C0EAE3F0E08081282F30E0B3
:101E20008B81882F90E0A90102C0559547958A952E
:101E3000E2F7CA018170EC81FD8180833EC0E7E357
:101E4000F0E08081282F30E08B81882F90E0A9017D
:101E500002C0559547958A95E2F7CA018170EC81D9
:101E6000FD8180832AC0E4E3F0E08081282F30E008
:101E70008B81882F90E0A90102C0559547958A95DE
:101E8000E2F7CA018170EC81FD81808316C0E1E335
:101E9000F0E08081282F30E08B81882F90E0A9012D
:101EA00002C0559547958A95E2F7CA018170EC8189
:101EB000FD81808302C081E08983898127960FB6E6
:101EC000F894DEBF0FBECDBFCF91DF910895DF93B1
:101ED000CF9300D000D00F92CDB7DEB78A836B834B
:101EE00019828A81282F30E03D832C838C819D814B
:101EF00081309105D1F02C813D81223031052CF4C7
:101F00008C819D81009761F01FC02C813D81223022
:101F1000310581F08C819D818330910581F014C061
:101F2000EAE3F0E08B81808311C0E7E3F0E08B818E
:101F300080830CC0E4E3F0E08B81808307C0E1E3A1
:101F4000F0E08B81808302C081E0898389810F90DA
:101F50000F900F900F900F90CF91DF910895DF9326
:101F6000CF9300D000D000D0CDB7DEB78A837C837A
:101F70006B8319828B819C81009719F482E089839D
:101F80003DC08A81282F30E03E832D838D819E8144
:101F900081309105E1F02D813E81223031052CF414
:101FA0008D819E81009761F027C02D813E81223076
:101FB0003105A1F08D819E8183309105B1F01CC067
:101FC000EAE3F0E08081EB81FC81808317C0E7E3E6
:101FD000F0E08081EB81FC81808310C0E4E3F0E0DD
:101FE0008081EB81FC81808309C0E1E3F0E08081A6
:101FF000EB81FC81808302C081E089838981269600
:102000000FB6F894DEBF0FBECDBFCF91DF9108951C
:10201000DF93CF9300D000D00F92CDB7DEB78A8385
:102020006B8319828B81883018F081E08983CDC061
:102030008A81282F30E03D832C834C815D814130A3
:10204000510509F442C08C819D818230910534F4A0
:102050002C813D812115310571F0B5C04C815D8128
:102060004230510509F45BC08C819D81833091051C
:1020700009F47FC0A8C0EAE3F0E08081282F30E0B7
:102080008B81882F90E0A90102C0559547958A95CC
:10209000E2F7CA01817090700097A1F4ABE3B0E061
:1020A000EBE3F0E08081482F8B81282F30E081E046
:1020B00090E0022E02C0880F991F0A94E2F7842B49
:1020C0008C9383C083E0898380C0E7E3F0E0808164
:1020D000282F30E08B81882F90E0A90102C0559510
:1020E00047958A95E2F7CA01817090700097A1F434
:1020F000A8E3B0E0E8E3F0E08081482F8B81282F4F
:1021000030E081E090E0022E02C0880F991F0A940F
:10211000E2F7842B8C9359C083E0898356C0E4E3B3
:10212000F0E08081282F30E08B81882F90E0A9019A
:1021300002C0559547958A95E2F7CA018170907063
:102140000097A1F4A5E3B0E0E5E3F0E08081482F3B
:102150008B81282F30E081E090E0022E02C0880FB2
:10216000991F0A94E2F7842B8C932FC083E0898314
:102170002CC0E1E3F0E08081282F30E08B81882FB4
:1021800090E0A90102C0559547958A95E2F7CA01EA
:10219000817090700097A1F4A2E3B0E0E2E3F0E078
:1021A0008081482F8B81282F30E081E090E0022E43
:1021B00002C0880F991F0A94E2F7842B8C9305C004
:1021C00083E0898302C081E0898389810F900F9029
:1021D0000F900F900F90CF91DF910895DF93CF93E1
:1021E00000D000D00F92CDB7DEB78A836B831982FF
:1021F0008B81883018F081E08983D1C08A81282FB3
:1022000030E03D832C834C815D814130510509F4E0
:1022100043C08C819D818230910534F42C813D81B5
:102220002115310571F0B9C04C815D8142305105F5
:1022300009F45DC08C819D818330910509F482C0D1
:10224000ACC0EAE3F0E08081282F30E08B81882F5A
:1022500090E0A90102C0559547958A95E2F7CA0119
:10226000817090700097A9F4ABE3B0E0EBE3F0E08D
:102270008081482F8B81282F30E081E090E0022E72
:1022800002C0880F991F0A94E2F7809584238C93EB
:1022900086C083E0898383C0E7E3F0E08081282F54
:1022A00030E08B81882F90E0A90102C055954795B9
:1022B0008A95E2F7CA01817090700097A9F4A8E3AB
:1022C000B0E0E8E3F0E08081482F8B81282F30E0F8
:1022D00081E090E0022E02C0880F991F0A94E2F775
:1022E000809584238C935BC083E0898358C0E4E3AA
:1022F000F0E08081282F30E08B81882F90E0A901C9
:1023000002C0559547958A95E2F7CA018170907091
:102310000097A9F4A5E3B0E0E5E3F0E08081482F61
:102320008B81282F30E081E090E0022E02C0880FE0
:10233000991F0A94E2F7809584238C9330C083E040
:1023400089832DC0E1E3F0E08081282F30E08B818C
:10235000882F90E0A90102C0559547958A95E2F72C
:10236000CA01817090700097A9F4A2E3B0E0E2E3A3
:10237000F0E08081482F8B81282F30E081E090E0D1
:10238000022E02C0880F991F0A94E2F780958423D9
:102390008C9305C083E0898302C081E089838981B1
:1023A0000F900F900F900F900F90CF91DF910895A5
:1023B000DF93CF93CDB7DEB7A7E2B0E0E7E2F0E07E
:1023C0008081806C8C93A7E2B0E0E7E2F0E080814E
:1023D0008F7D8C93A6E2B0E0E6E2F0E08081887F1A
:1023E00081608C93A6E2B0E0E6E2F0E080818F7D30
:1023F0008C93A6E2B0E0E6E2F0E0808188608C9306
:10240000A6E2B0E0E6E2F0E0808180688C93CF91B4
:10241000DF910895DF93CF93CDB7DEB7A6E2B0E0AA
:10242000E6E2F0E0808180688C93CF91DF9108959F
:10243000DF93CF93CDB7DEB7A6E2B0E0E6E2F0E0FF
:1024400080818F778C93CF91DF910895DF93CF9325
:1024500000D000D0CDB7DEB78A837C836B8319822E
:102460008A81883018F081E089832BC0A7E2B0E030
:10247000E7E2F0E08081982F907F8A81892B8C930E
:10248000A6E2B0E0E6E2F0E0808180648C93E6E2D0
:10249000F0E0808182958F70882F90E0817090703D
:1024A0000097A9F38B819C810E948D12982F8981BE
:1024B000892B8983A6E2B0E0E6E2F0E080818061CA
:1024C0008C9389810F900F900F900F90CF91DF9197
:1024D0000895DF93CF9300D0CDB7DEB78A831982FA
:1024E0008A81883018F081E0898311C0A7E2B0E0CA
:1024F000E7E2F0E08081982F907F8A81892B8C938E
:10250000A6E2B0E0E6E2F0E0808180648C9389810D
:102510000F900F90CF91DF910895DF93CF9300D06C
:102520000F92CDB7DEB79B838A8319828A819B8104
:10253000009719F482E0898308C0E4E2F0E080812A
:102540009181EA81FB819183808389810F900F9033
:102550000F90CF91DF910895DF93CF9300D0CDB747
:10256000DEB78A8319828A81883018F081E08983F6
:102570000AC0A7E2B0E0E7E2F0E08081982F907F08
:102580008A81892B8C9389810F900F90CF91DF9155
:102590000895DF93CF9300D0CDB7DEB78A83198239
:1025A0008A81843018F081E0898315C0A7E2B0E009
:1025B000E7E2F0E08081282F2F738A81882F90E056
:1025C0000024969587950794969587950794982F5C
:1025D000802D822B8C9389810F900F90CF91DF916A
:1025E0000895DF93CF93CDB7DEB7A6E2B0E0E6E281
:1025F000F0E0808188608C93CF91DF910895DF9324
:10260000CF93CDB7DEB7A6E2B0E0E6E2F0E080819E
:10261000877F8C93CF91DF910895DF93CF9300D084
:102620000F92CDB7DEB79B838A8319828A819B8103
:10263000009719F482E0898306C08A819B81909378
:102640000D0280930C0289810F900F900F90CF9113
:10265000DF9108951F920F920FB60F9211242F93BE
:102660003F934F935F936F937F938F939F93AF931A
:10267000BF93EF93FF93DF93CF93CDB7DEB78091F6
:102680000C0290910D02009729F0E0910C02F0915C
:102690000D020995CF91DF91FF91EF91BF91AF911D
:1026A0009F918F917F916F915F914F913F912F916A
:1026B0000F900FBE0F901F901895DF93CF93CDB75B
:1026C000DEB70E94F0018FE19EE40E944E0286E296
:1026D00092E00E946002CF91DF910895DF93CF9343
:1026E00000D000D000D0CDB7DEB78E831D82198216
:1026F0001A821B821C828E81853B18F081E08D83BB
:1027000025C08E81882F90E0A0E0B0E02EEE37E06B
:1027100040E050E0BC01CD010E940032DC01CB0161
:1027200024EB30E040E050E0BC01CD010E94523289
:10273000DA01C9018A5D9D4FAF4FBF4F89839A83EC
:10274000AB83BC8389819A810E9460028D81269629
:102750000FB6F894DEBF0FBECDBFCF91DF910895C5
:10276000DF93CF93CDB7DEB727970FB6F894DEBFD0
:102770000FBECDBF9F838E831D8219821A821B825A
:102780001C828E819F81009719F482E08D832CC07A
:102790000E949A0286529240CC01A0E0B0E0898368
:1027A0009A83AB83BC8389819A81AB81BC8124EB02
:1027B00030E040E050E0BC01CD010E940032DC017D
:1027C000CB012EEE37E040E050E0BC01CD010E948D
:1027D0005232DA01C90189839A83AB83BC83898130
:1027E0008F5FEE81FF8180838D8127960FB6F894ED
:1027F000DEBF0FBECDBFCF91DF910895DF93CF93A2
:10280000CDB7DEB70E94BA05CF91DF910895DF936F
:10281000CF9300D000D0CDB7DEB78A837C836B83A3
:1028200019820E941B06982F8981892B898380E554
:102830000E947D06982F8981892B89838A810E9435
:10284000FB06982F8981892B89830E944C06982F3B
:102850008981892B898380E50E94BC06982F898114
:10286000892B89838B819C810E942B07982F8981DA
:10287000892B89830E94680789810F900F900F90A0
:102880000F90CF91DF910895DF93CF9300D00F92F7
:10289000CDB7DEB78A836B8319820E941B06982FFF
:1028A0008981892B898380E50E947D06982F898103
:1028B000892B89838A810E94FB06982F8981892B25
:1028C00089838B810E94FB06982F8981892B8983BC
:1028D0000E94680763E070E080E090E00E94FC04E2
:1028E00089810F900F900F90CF91DF910895DF9322
:1028F000CF9300D000D0CDB7DEB71C8282E064E079
:1029000040E00E94AB0A982F8C81892B8C8388E34E
:102910008B838B810E940C15982F8C81892B8C8343
:1029200061E070E080E090E00E94FC048CE08B832A
:102930008B810E940C15982F8C81892B8C8361E0F0
:1029400070E080E090E00E94FC0481E00E940C15A1
:10295000982F8C81892B8C8361E070E080E090E07F
:102960000E94FC0486E08B838B810E940C15982FBB
:102970008C81892B8C8361E070E080E090E00E9484
:10298000FC0480E40E940C15982F8C81892B8C8389
:1029900061E070E080E090E00E94FC041A822AC0AE
:1029A000198222C08A81482F50E08981282F30E087
:1029B000CA01880F991F880F991F880F991F820FCE
:1029C000931FFC01E053FE4F80810E945315982F06
:1029D0008C81892B8C8361E070E080E090E00E9424
:1029E000FC0489818F5F898389818830D8F28A814C
:1029F0008F5F8A838A81843098F280E80E940C1568
:102A0000982F8C81892B8C838C810F900F900F9045
:102A10000F90CF91DF910895DF93CF9300D0CDB782
:102A2000DEB78A83198282E062E040E00E94AB0A4E
:102A3000982F8981892B898382E063E040E00E949E
:102A4000AB0A982F8981892B898382E064E040E07A
:102A50000E94AB0A982F8981892B89838A810E94E1
:102A6000E216982F8981892B898382E064E041E016
:102A70000E94AB0A982F8981892B898361E070E0DD
:102A800080E090E00E94FC0482E064E040E00E946C
:102A9000AB0A982F8981892B898389810F900F90A8
:102AA000CF91DF910895DF93CF9300D0CDB7DEB7FC
:102AB0008A83198282E062E041E00E94AB0A982F8B
:102AC0008981892B898382E063E040E00E94AB0A20
:102AD000982F8981892B898382E064E040E00E94FD
:102AE000AB0A982F8981892B89838A810E94E216FB
:102AF000982F8981892B898382E064E041E00E94DC
:102B0000AB0A982F8981892B898361E070E080E08E
:102B100090E00E94FC0482E064E040E00E94AB0A86
:102B2000982F8981892B898389810F900F90CF916C
:102B3000DF910895DF93CF9300D000D0CDB7DEB7FB
:102B40009C838B831A8219828B819C810097A9F4C4
:102B500082E08A831DC08981282F30E08B819C818F
:102B6000FC01E20FF31F80810E945315982F8A8188
:102B7000892B8A8389818F5F89838981282F30E01F
:102B80008B819C81FC01E20FF31F8081882319F760
:102B90008A810F900F900F900F90CF91DF91089541
:102BA000DF93CF9300D000D00F92CDB7DEB78A83EA
:102BB0006B8319828B81803120F58A81282F30E048
:102BC0003D832C838C819D81009731F02C813D8148
:102BD0002130310551F012C08B8180580E940C15B4
:102BE000982F8981892B89830EC08B8180540E9404
:102BF0000C15982F8981892B898305C081E08983F1
:102C000002C081E0898389810F900F900F900F900F
:102C10000F90CF91DF910895DF93CF93CDB7DEB7BB
:102C20002F970FB6F894DEBF0FBECDBF6C877D87A0
:102C30008E879F871B868C859D85AE85BF858F83FC
:102C40009887A987BA871B821C821D821E821A82DE
:102C50008A818F5F8A838F819885A985BA852AE0CA
:102C600030E040E050E0BC01CD010E947432DC0154
:102C7000CB019C01AD018B819C81AD81BE81820F16
:102C8000931FA41FB51F8B839C83AD83BE838F814D
:102C90009885A985BA852AE030E040E050E0BC0183
:102CA000CD010E947432DA01C9018F839887A98708
:102CB000BA878B819C81AD81BE812AE030E040E003
:102CC00050E0BC01CD010E940032DC01CB018B83BE
:102CD0009C83AD83BE838F819885A985BA85009733
:102CE000A105B10509F0B4CF8B819C81AD81BE8176
:102CF0002AE030E040E050E0BC01CD010E94743297
:102D0000DA01C9018B839C83AD83BE838C859D854D
:102D1000AE85BF85BB23E4F48DE20E945315982F46
:102D20008B85892B8B878B819C81AD81BE81BB2359
:102D30007CF48B819C81AD81BE81B095A0959095EE
:102D400081959F4FAF4FBF4F8B839C83AD83BE83D5
:102D500019822AC08B819C81AD81BE812AE030E03E
:102D600040E050E0BC01CD010E947432DC01CB0197
:102D7000805D0E945315982F8B85892B8B878B81C3
:102D80009C81AD81BE812AE030E040E050E0BC0192
:102D9000CD010E947432DA01C9018B839C83AD831B
:102DA000BE8389818F5F898399818A81981790F288
:102DB0008B852F960FB6F894DEBF0FBECDBFCF9197
:102DC000DF910895DF93CF9300D0CDB7DEB78A832C
:102DD00019828A81982F917081E063E0492F0E94C7
:102DE000AB0A982F8981892B89838A818695982FB0
:102DF000917081E064E0492F0E94AB0A982F89818D
:102E0000892B89838A8186958695982F917081E098
:102E100065E0492F0E94AB0A982F8981892B89830D
:102E20008A81869586958695982F917081E066E0D7
:102E3000492F0E94AB0A982F8981892B89838A8127
:102E400082958F70982F917081E067E0492F0E94E2
:102E5000AB0A982F8981892B89838A8182958695EF
:102E60008770982F917082E065E0492F0E94AB0A2D
:102E7000982F8981892B89838A8182958695869569
:102E80008370982F917082E066E0492F0E94AB0A10
:102E9000982F8981892B89838A81982F991F992757
:102EA000991F82E067E0492F0E94AB0A982F898121
:102EB000892B898389810F900F90CF91DF9108959D
:102EC000DF93CF930F92CDB7DEB78FEF89830E9448
:102ED000940A83E062E00E940810982F80910E020D
:102EE000892B80930E0283E063E00E940810982FE4
:102EF00080910E02892B80930E0281E062E00E9495
:102F00000810982F80910E02892B80930E020E9448
:102F1000FE130E94D81186EB99E10E940D13982FA1
:102F200080910E02892B80930E020E9449008CED45
:102F300099E10E945601982F80910E02892B80936F
:102F40000E020E94F4038AEF0E947C048BE39AE154
:102F50000E94DF04982F80910E02892B80930E022D
:102F60000E94A6040E94A60989ED9AE10E94440AE3
:102F7000982F80910E02892B80930E020E94B80830
:102F80008AEE9AE10E945609982F80910E02892BB1
:102F900080930E020E940C088BEF9AE10E94680851
:102FA000982F80910E02892B80930E020E945D1350
:102FB0000E94F1120E94BB090E94CD080E941A08CB
:102FC0000E94F0070E947714982F80910E02892B9F
:102FD00080930E0280E59E012F5F3F4FB9010E9452
:102FE0000714982F80910E02892B80930E028981FD
:102FF0008F3F59F580E560E00E944414982F80913E
:103000000E02892B80930E02809111029091120280
:10301000982F81E5692F0E944414982F80910E0209
:10302000892B80930E028091110290911202892FB8
:103030009927982F82E5692F0E944414982F809138
:103040000E02892B80930E021BC021E132E081E544
:10305000B9010E940714982F80910E02892B80934A
:103060000E0281E192E09C012F5F3F4F82E5B901A2
:103070000E940714982F80910E02892B80930E02D4
:1030800080911102909112020E940C1B982F809146
:103090000E02892B80930E0280E060E00E9485265C
:1030A000982F80910E02892B80930E020E94CD1AD8
:1030B0000F90CF91DF910895DF93CF930F92CDB70B
:1030C000DEB7198280912E028170882379F1809178
:1030D0002E02806180932E020E94361C982F8091D0
:1030E0000E02892B80930E020E94932C982F8091C0
:1030F0000E02892B80930E0264E670E080E090E07F
:103100000E94FC0480912E028D7F80932E0280917C
:103110002E028B7F80932E0280912E02877F8093D8
:103120002E0280912E028E7F80932E0280912E029D
:103130008072882339F280912E028F7D80932E0237
:1031400080912E028F7E80932E020E94932C982FC6
:1031500080910E02892B80930E028091290290911A
:103160002A02009709F053C08091300288708823AA
:1031700009F44DC080913002877F809330028091A6
:1031800028028370813041F40E94F62590910E024E
:10319000892B80930E020CC08091280283708230AC
:1031A00039F40E940F2690910E02892B80930E0213
:1031B000809128028C7F80932802809128028C7055
:1031C000843041F40E94282690910E02892B80932E
:1031D0000E020CC0809128028C70883039F40E9455
:1031E000412690910E02892B80930E028091280235
:1031F000837F80932802809128028073803111F4AC
:103200000E945A26809128028F7C80932802809108
:1032100030028470882389F089818F5F89830E94BE
:103220007226982F80910E02892B80930E0289813D
:10323000863019F40E9466261982809126029091A8
:103240002702CC01A0E0B0E0BA2FA92F982F882741
:103250002FEF33E040E050E0BC01CD010E9452323C
:10326000DA01C90180932D0280913202882349F14D
:1032700080913302882329F1809130028270882363
:1032800071F49091320280912D02981740F40E94BF
:10329000282690910E02892B80930E0212C08091F5
:1032A00030028270882369F09091330280912D0260
:1032B000891738F40E94412690910E02892B809341
:1032C0000E0280912B0290912C02CC01A0E0B0E084
:1032D00024E630E040E050E0BC01CD010E94003225
:1032E000DC01CB012FEF33E040E050E0BC01CD0129
:1032F0000E945232DA01C90180932F028091340278
:10330000882349F180913502882329F18091300288
:103310008170882371F09091340280912F02981768
:1033200040F40E940F2690910E02892B80930E028A
:1033300012C0809130028170882369F49091350227
:1033400080912F02891738F40E94F62590910E0281
:10335000892B80930E0280910E02882309F4B2CE4D
:1033600080E065E041E00E94AB0AACCEDF93CF93F2
:10337000CDB7DEB780912E028078882359F486E29B
:1033800092E00E948D12982F80910E02892B8093DB
:103390000E020FC080912E028078882351F08BE2BC
:1033A00092E00E948D12982F80910E02892B8093BB
:1033B0000E02CF91DF910895DF93CF9300D0CDB768
:1033C000DEB783E192E00E940B01982F80910E02FC
:1033D000892B80930E0280911302282F30E03A83CC
:1033E000298389819A818535910501F129813A8165
:1033F000263531055CF489819A818434910509F17F
:1034000029813A812534310539F130C089819A8189
:103410008536910509F129813A812537310531F049
:1034200089819A818436910561F020C080912E02B5
:10343000826080932E0280912E02816080932E0202
:1034400015C080912E02846080932E0280912E02FE
:10345000816080932E020AC080912E028860809342
:103460002E0280912E02816080932E020F900F9089
:10347000CF91DF910895DF93CF93CDB7DEB78091E1
:103480002E028074882381F080912E028F7B80939E
:103490002E0280E00E945104109214021092150234
:1034A0001092160210921702809114029091150248
:1034B000A0911602B09117020196A11DB11D809333
:1034C000140290931502A0931602B09317028091F4
:1034D000140290911502A0911602B0911702803546
:1034E0009105A105B10579F480E00E946912982F39
:1034F00080910E02892B80930E0280912E028F778D
:1035000080932E0247C08091140290911502A091E1
:103510001602B0911702803F9105A105B10579F41B
:1035200081E00E946912982F80910E02892B80936E
:103530000E0280912E02806880932E022BC0809113
:10354000140290911502A0911602B0911702843FC7
:1035500021E0920720E0A20720E0B207D9F4809191
:1035600030028870882349F08091290290912A02C4
:10357000019790932A0280932902109214021092CC
:103580001502109216021092170280912E0280628C
:1035900080932E02CF91DF910895DF93CF93CDB723
:1035A000DEB780912E02806480932E02CF91DF914E
:1035B0000895DF93CF93CDB7DEB780912E0282605E
:1035C00080932E0280912E02816080932E02CF91F3
:1035D000DF910895DF93CF93CDB7DEB780912E02B0
:1035E000846080932E0280912E02816080932E024F
:1035F000CF91DF910895DF93CF93CDB7DEB7809160
:103600002E02886080932E0280912E02816080932A
:103610002E02CF91DF910895DF93CF93CDB7DEB720
:103620006C970FB6F894DEBF0FBECDBF9F8B8E8B0D
:103630001E821D821C821B821A821982CE0107966D
:10364000998F888FE5E7F0E0FB8FEA8FFFE0FC8F32
:10365000EA8DFB8D00808A8D9B8D01969B8F8A8FD2
:10366000E88DF98D0082888D998D0196998F888FCC
:103670009C8D91509C8FEC8DEE2351F78EE00E9433
:103680000C15982F8E81892B8E83CE0107960E9470
:103690009A15982F8E81892B8E8381E060E00E949D
:1036A000D015982F8E81892B8E8380E690E00E9422
:1036B0009A15982F8E81892B8E8380912E028D7F73
:1036C00080932E0280912E028B7F80932E02809118
:1036D0002E02877F80932E0280912E028E7F809310
:1036E0002E02B6C081E06B810E94D015982F8E818A
:1036F000892B8E8380912E028170882309F4A8C0C3
:1037000080912E028E7F80932E0280912E028270F5
:103710008823F1F080912E028D7F80932E028C8180
:10372000893011F41C8203C08C818F5F8C838C8163
:10373000805D0E945315982F8E81892B8E8381E0A6
:103740006B810E94D015982F8E81892B8E8380C02B
:1037500080912E0284708823F9F080912E028B7F55
:1037600080932E028C81882319F489E08C8303C016
:103770008C8181508C838C81805D0E945315982FA1
:103780008E81892B8E8381E06B810E94D015982FCA
:103790008E81892B8E835CC080912E028870882355
:1037A00009F456C080912E02877F80932E02898172
:1037B0009A819C01220F331FC901880F991F880F1E
:1037C000991F280F391F8C81882F90E0820F931F3B
:1037D0009A8389838B818330B9F529813A818E89D7
:1037E0009F892817390719F481E08D8331C080E063
:1037F00060E00E94D015982F8E81892B8E8385E6FC
:1038000090E00E949A15982F8E81892B8E8381E0FB
:1038100060E00E94D015982F8E81892B8E8380E6E0
:1038200090E00E949A15982F8E81892B8E8381E0DB
:1038300060E00E94D015982F8E81892B8E831C8288
:103840001B821A82198204C08B818F5F8B831C823A
:103850008D81882309F446CF8E816C960FB6F8943B
:10386000DEBF0FBECDBFCF91DF910895DF93CF9321
:10387000CDB7DEB727970FB6F894DEBF0FBECDBF2A
:103880008091F101898380912E028270882309F44E
:103890005EC080912E028D7F80932E028091F00178
:1038A000882351F485E060E00E94852690911802FB
:1038B000892B809318022BC18091F101882369F430
:1038C0008091F001815060E00E948526982F8091C0
:1038D0001802892B809318021AC18091F001282FB9
:1038E00030E03F832E838E819F818330910519F1D3
:1038F0002E813F81243031055CF48E819F8181309F
:10390000910589F02E813F812230310581F0FFC081
:103910008E819F818430910591F02E813F812530E9
:10392000310589F0F4C080E00E94921DF0C080E073
:103930000E94D51FECC080E00E94E621E8C080E034
:103940000E94F223E4C080E00E94EB24E0C080915A
:103950002E028470882309F461C080912E028B7F2F
:1039600080932E028091F001853069F4898188234B
:1039700051F480E060E00E94852690911802892B26
:1039800080931802C4C08091F101882369F480916A
:10399000F0018F5F60E00E948526982F80911802C9
:1039A000892B80931802B3C08091F001282F30E05A
:1039B0003D832C838C819D818330910519F12C816D
:1039C0003D81243031055CF48C819D8181309105ED
:1039D00089F02C813D812230310581F098C08C81A5
:1039E0009D818430910591F02C813D8125303105F8
:1039F00089F08DC081E00E94921D89C081E00E9403
:103A0000D51F85C081E00E94E62181C081E00E942F
:103A1000F2237DC081E00E94EB2479C080912E02C8
:103A20008870882309F46EC080912E02877F80936E
:103A30002E028091F001882309F469C08091F10180
:103A4000882381F42091F0018981982F9F5F822F34
:103A5000692F0E948526982F80911802892B8093C8
:103A6000180255C08091F001282F30E03B832A8353
:103A70008A819B818330910519F12A813B81243011
:103A800031055CF48A819B818130910589F02A811E
:103A90003B812230310581F01EC08A819B818430B8
:103AA000910591F02A813B812530310589F013C0C1
:103AB00082E00E94921D0FC082E00E94D51F0BC0C1
:103AC00082E00E94E62107C082E00E94F22303C048
:103AD00082E00E94EB249091F10189818917B9F06D
:103AE0008091F101898385E08093F1018091F0015B
:103AF00069810E948526982F80911802892B8093D6
:103B0000180205C080912E028F7E80932E02809134
:103B1000180227960FB6F894DEBF0FBECDBFCF9127
:103B2000DF910895DF93CF9300D00F92CDB7DEB72A
:103B300089838091F101282F30E03B832A838A8199
:103B40009B8182309105D1F02A813B812330310560
:103B500034F48A819B818130910561F01AC02A81F9
:103B60003B812330310571F08A819B81843091053E
:103B700069F00FC089810E94CF1D0BC089810E940E
:103B8000BC1E07C089810E941C1F03C089810E943E
:103B90007C1F0F900F900F90CF91DF910895DF93CE
:103BA000CF9300D00F92CDB7DEB789838981282FBC
:103BB00030E03B832A834A815B814130510521F10A
:103BC0008A819B8182309105A9F12A813B8121154F
:103BD000310509F0CBC080911002823021F0809134
:103BE0000F02893041F080911002823039F48091C7
:103BF0000F02853019F410920F02B8C080910F02A5
:103C00008F5F80930F02B2C080910F02882361F40E
:103C100080911002823021F485E080930F02A6C0CB
:103C200089E080930F02A2C080910F02815080939F
:103C30000F029CC0809110028823F9F480910F023A
:103C4000282F30E088E592E0AC01249FC001259F39
:103C5000900D349F900D11249C0180911902909138
:103C60001A02820F931F90931A0280931902809177
:103C700010028F5F8093100277C080911002813014
:103C8000F9F480910F02282F30E08CE390E0AC0132
:103C9000249FC001259F900D349F900D11249C01FD
:103CA0008091190290911A02820F931F90931A0229
:103CB00080931902809110028F5F8093100254C08C
:103CC000809110028230F9F480910F02882F90E0E9
:103CD0009C01220F331FC901880F991F880F991F5C
:103CE000820F931F9C018091190290911A02820FFA
:103CF000931F90931A0280931902809110028F5F94
:103D00008093100231C080911002833069F5809158
:103D10000F02282F30E08091190290911A02820F31
:103D2000931F90931A028093190280913002877F2B
:103D3000809330028091190290911A0290932A0286
:103D4000809329028091290290912A02009719F408
:103D50001092F10103C082E08093F10110921A02E7
:103D6000109219021092100210920F020F900F90F1
:103D70000F90CF91DF910895DF93CF9300D00F92F2
:103D8000CDB7DEB789838981282F30E03B832A8332
:103D90008A819B8181309105B9F02A813B81223053
:103DA000310501F18A819B81009709F03FC0809124
:103DB0000F02823019F410920F0238C080910F0266
:103DC0008F5F80930F0232C080910F02882321F40D
:103DD00082E080930F022AC080910F02815080936D
:103DE0000F0224C080910F02882339F480912802A9
:103DF0008C7F81608093280214C080910F028130F3
:103E000039F4809128028C7F82608093280209C057
:103E100080910F02823029F4809128028C7F809358
:103E2000280283E08093F10110920F020F900F900F
:103E30000F90CF91DF910895DF93CF9300D00F9231
:103E4000CDB7DEB789838981282F30E03B832A8371
:103E50008A819B8181309105B9F02A813B81223092
:103E6000310501F18A819B81009709F03FC0809163
:103E70000F02823019F410920F0238C080910F02A5
:103E80008F5F80930F0232C080910F02882321F44C
:103E900082E080930F022AC080910F0281508093AC
:103EA0000F0224C080910F02882339F480912802E8
:103EB000837F84608093280214C080910F02813038
:103EC00039F480912802837F88608093280209C09A
:103ED00080910F02823029F480912802837F8093A1
:103EE000280284E08093F10110920F020F900F904E
:103EF0000F90CF91DF910895DF93CF9300D00F9271
:103F0000CDB7DEB789838981282F30E03B832A83B0
:103F10008A819B8181309105B1F02A813B812230D9
:103F20003105F9F08A819B810097C9F580910F02D4
:103F3000813019F410920F0232C080910F028F5F0E
:103F400080930F022CC080910F02882321F481E01E
:103F500080930F0224C080910F02815080930F0242
:103F60001EC080910F02882339F4809128028F7C33
:103F70008061809328020AC080910F02813031F461
:103F8000809128028F7C8062809328021092F10138
:103F90008091300288608093300210920F020F905F
:103FA0000F900F90CF91DF910895DF93CF930F92F1
:103FB000CDB7DEB789838091F101813021F4898109
:103FC0000E94EE1F07C08091F101823019F48981AF
:103FD0000E944B200F90CF91DF910895DF93CF93F4
:103FE00000D00F92CDB7DEB789838981282F30E0CA
:103FF0003B832A838A819B8181309105B1F02A819C
:104000003B8122303105F9F08A819B810097E9F5E7
:1040100080910F02833019F410920F0236C0809104
:104020000F028F5F80930F0230C080910F028823B0
:1040300021F483E080930F0228C080910F02815009
:1040400080930F0222C080910F02882339F40E94CE
:104050002826109233021092F10115C080910F02B0
:10406000813039F40E944126109232021092F101FF
:104070000AC080910F02823021F482E08093F10126
:1040800002C01092F10110920F020F900F900F904A
:10409000CF91DF910895DF93CF9300D00F92CDB7EA
:1040A000DEB789838981282F30E03B832A838A8188
:1040B0009B818130910509F494C02A813B81223093
:1040C000310509F412C18A819B81009709F078C1FA
:1040D00080911002882341F480910F02843021F4F2
:1040E00082E080930F026CC180911002813039F41C
:1040F00080910F02893019F410920F0261C18091F2
:1041000010028230B1F480910F02E82FF0E080912C
:104110001C02882F90E005972AE030E0B9010E9448
:104120003F32CB01E817F90721F481E080930F02B9
:1041300047C180911002833009F04DC080911B026D
:104140009AE0692F0E941F32E82FF0E080911C0254
:10415000882F90E005972AE030E0B9010E943F32B5
:10416000CB01E817F9073CF480910F02893019F46C
:1041700010920F0225C180911B029AE0692F0E94C4
:104180001F32E82FF0E080911C02882F90E0059705
:104190002AE030E0B9010E943F32CB01E817F9076D
:1041A000A1F480910F02E82FF0E080911C02882F8B
:1041B00090E005972AE030E0B9010E943F32E8170D
:1041C000F90719F410920F02FBC080910F028F5F64
:1041D00080930F02F5C080910F028F5F80930F02D2
:1041E000EFC080911002882341F480910F02823049
:1041F00021F484E080930F02E3C0809110028130AB
:1042000041F480910F02882321F489E080930F020A
:10421000D7C080911002823091F480910F028130DA
:1042200071F480911C02882F90E005972AE030E01D
:10423000B9010E943F32CB0180930F02C1C080912F
:104240001002833009F04BC080911B029AE0692F65
:104250000E941F32E82FF0E080911C02882F90E02E
:1042600005972AE030E0B9010E943F32CB01E81700
:10427000F90744F480910F02882321F489E08093A8
:104280000F029EC080911B029AE0692F0E941F328C
:10429000E82FF0E080911C02882F90E005972AE03B
:1042A00030E0B9010E943F32CB01E817F90789F4E9
:1042B00080910F02882369F480911C02882F90E07E
:1042C00005972AE030E0B9010E943F3280930F0247
:1042D00077C080910F02815080930F0271C080914E
:1042E0000F02815080930F026BC0809110028823CF
:1042F000D1F480910F02882F90E09C01220F331F90
:10430000C901880F991F880F991F820F931F982F3B
:1043100080911C02890F80931C0281E0809310021F
:1043200010920F024DC080911002813071F4909173
:104330001C0280910F02890F80931C0282E08093FF
:10434000100281E080930F023BC080911002823006
:10435000D1F480910F02882F90E09C01220F331F2F
:10436000C901880F991F880F991F820F931F982FDB
:1043700080911B02890F80931B0283E080931002BF
:1043800010920F021DC0809110028330C9F49091E9
:104390001B0280910F02890F80931B0280911C02E7
:1043A0008093320280911B02809333021092F101BC
:1043B00010921C0210921B021092100210920F0217
:1043C0000F900F900F90CF91DF910895DF93CF93CF
:1043D0000F92CDB7DEB789838091F101813021F44E
:1043E00089810E94FF2107C08091F101823019F478
:1043F00089810E945C220F90CF91DF910895DF9315
:10440000CF9300D00F92CDB7DEB789838981282F53
:1044100030E03B832A838A819B8181309105B1F012
:104420002A813B8122303105F9F08A819B810097F6
:10443000E9F580910F02833019F410920F0236C013
:1044400080910F028F5F80930F0230C080910F0226
:10445000882321F483E080930F0228C080910F020B
:10446000815080930F0222C080910F02882339F47B
:104470000E94F625109234021092F10115C080912D
:104480000F02813039F40E940F26109235021092EB
:10449000F1010AC080910F02823021F482E0809302
:1044A000F10102C01092F10110920F020F900F90D3
:1044B0000F90CF91DF910895DF93CF9300D00F92AB
:1044C000CDB7DEB789838981282F30E03B832A83EB
:1044D0008A819B818130910509F48FC02A813B81BB
:1044E0002230310509F40DC18A819B81009709F0C2
:1044F00073C180911002882341F480910F028930AA
:1045000021F482E080930F0267C180911002813014
:1045100039F480910F02893019F410920F025CC1B6
:10452000809110028230B1F480910F02E82FF0E008
:1045300080911E02882F90E00A972AE030E0B901AE
:104540000E943F32CB01E817F90721F481E0809304
:104550000F0242C180911002833009F048C080915F
:104560001D029AE0692F0E941F32E82FF0E080912F
:104570001E02882F90E00A972AE030E0B9010E94DD
:104580003F32CB01E817F9073CF480910F028930E4
:1045900019F410920F0220C180911D029AE0692F38
:1045A0000E941F32E82FF0E080911E02882F90E0D9
:1045B0000A972AE030E0B9010E943F32CB01E817A8
:1045C000F90779F480911E029AE0692F0E941F3248
:1045D000892F982F80910F02981719F410920F02CB
:1045E000FBC080910F028F5F80930F02F5C0809116
:1045F0000F028F5F80930F02EFC08091100288231B
:1046000041F480910F02823021F489E080930F02FF
:10461000E3C080911002813041F480910F02882321
:1046200021F489E080930F02D7C08091100282307C
:1046300091F480910F02813071F480911E02882FD5
:1046400090E00A972AE030E0B9010E943F32CB01A6
:1046500080930F02C1C080911002833009F04BC0DB
:1046600080911D029AE0692F0E941F32E82FF0E02E
:1046700080911E02882F90E00A972AE030E0B9016D
:104680000E943F32CB01E817F90744F480910F02F2
:10469000882321F489E080930F029EC080911D023F
:1046A0009AE0692F0E941F32E82FF0E080911E02ED
:1046B000882F90E00A972AE030E0B9010E943F324B
:1046C000CB01E817F90789F480910F02882369F478
:1046D00080911D02882F90E00A972AE030E0B9010E
:1046E0000E943F3280930F0277C080910F02815069
:1046F00080930F0271C080910F02815080930F024E
:104700006BC0809110028823D1F480910F02882F12
:1047100090E09C01220F331FC901880F991F880F59
:10472000991F820F931F982F80911E02890F8093EB
:104730001E0281E08093100210920F024DC0809102
:104740001002813071F490911E0280910F02890F46
:1047500080931E0282E08093100281E080930F021A
:104760003BC0809110028230D1F480910F02882FDB
:1047700090E09C01220F331FC901880F991F880FF9
:10478000991F820F931F982F80911D02890F80938C
:104790001D0283E08093100210920F021DC08091D1
:1047A00010028330C9F490911D0280910F02890F8D
:1047B00080931D0280911E028093340280911D021D
:1047C000809335021092F10110921E0210921D0288
:1047D0001092100210920F020F900F900F90CF9135
:1047E000DF910895DF93CF930F92CDB7DEB7898322
:1047F0008091F101813019F489810E9403240F9086
:10480000CF91DF910895DF93CF9300D00F92CDB772
:10481000DEB789838981282F30E03B832A834A8150
:104820005B814130510509F440C08A819B8182300F
:10483000910509F471C02A813B812115310509F0E8
:10484000C4C080911002882339F480910F02813016
:1048500019F410920F02B9C080911002813061F4F6
:1048600080911F028456843638F480910F0288307C
:1048700019F410920F02A9C080911002823041F405
:1048800080911F02845B8A3018F410920F029DC041
:1048900080910F02893019F410920F0296C0809116
:1048A0000F028F5F80930F0290C0809110028823C7
:1048B00041F480910F02882321F481E080930F025C
:1048C00084C080911002813069F480911F02845667
:1048D000843640F480910F02882321F488E080938D
:1048E0000F0273C080911002823041F480911F0248
:1048F000845B8A3018F410920F0267C080910F0217
:10490000882321F489E080930F025FC080910F0219
:10491000815080930F0259C0809110028823C1F406
:1049200080910F02282F30E084E690E0AC01249FB4
:10493000C001259F900D349F900D1124982F8091D8
:104940001F02890F80931F0281E0809310023BC0F9
:10495000809110028130C1F480910F02882F90E085
:104960009C01220F331FC901880F991F880F991FBF
:10497000820F931F982F80911F02890F80931F022F
:1049800082E0809310021FC0809110028230D9F41F
:1049900090911F0280910F02890F80931F028091D6
:1049A0001F0280933102809131020E946E13982F72
:1049B00080911802892B809318021092F1011092B5
:1049C0001F021092100210920F020F900F900F9082
:1049D000CF91DF910895DF93CF9300D00F92CDB7A1
:1049E000DEB789838091F101833039F48981823087
:1049F00009F0F6C01092F101F3C08981282F30E050
:104A00003B832A834A815B8141305105C1F08A8111
:104A10009B818230910509F12A813B812115310565
:104A200009F0DEC080910F02893019F410920F0254
:104A3000D7C080910F028F5F80930F02D1C0809109
:104A40000F02882321F489E080930F02C9C080916E
:104A50000F02815080930F02C3C0809110028823FF
:104A6000E9F480910F02282F30E088EE93E0AC014A
:104A7000249FC001259F900D349F900D11249C010F
:104A80008091200290912102820F931F9093210226
:104A90008093200281E080931002A0C080911002D8
:104AA0008130E9F480910F02282F30E084E690E015
:104AB000AC01249FC001259F900D349F900D1124BF
:104AC0009C018091200290912102820F931F90936C
:104AD00021028093200282E0809310027FC08091A7
:104AE00010028230E9F480910F02882F90E09C013F
:104AF000220F331FC901880F991F880F991F820F3A
:104B0000931F9C018091200290912102820F931F9C
:104B1000909321028093200283E0809310025EC074
:104B200080911002833009F059C080910F02282F24
:104B300030E08091200290912102820F931F909388
:104B40002102809320028091F101813099F420911B
:104B500020023091210280911102909112022817B7
:104B6000390721F482E08093F10132C083E0809321
:104B7000F1012EC08091F101823051F58091200227
:104B80009091210290931202809311028091110260
:104B900090911202982F81E5692F0E944414982F5A
:104BA00080911802892B80931802809111029091B4
:104BB0001202892F9927982F82E5692F0E944414A9
:104BC000982F80911802892B809318021092F1017E
:104BD00010922102109220021092100210920F02E5
:104BE0000F900F900F90CF91DF910895DF93CF93A7
:104BF0000F92CDB7DEB71982809130028160809329
:104C0000300280E062E041E00E94AB0A982F898187
:104C1000892B898389810F90CF91DF910895DF934C
:104C2000CF930F92CDB7DEB71982809130028E7F7D
:104C30008093300280E062E040E00E94AB0A982F4F
:104C40008981892B898389810F90CF91DF91089584
:104C5000DF93CF930F92CDB7DEB7198280913002E8
:104C600082608093300280E063E041E00E94AB0A02
:104C7000982F8981892B898389810F90CF91DF912A
:104C80000895DF93CF930F92CDB7DEB7198280914D
:104C900030028D7F8093300280E063E040E00E942C
:104CA000AB0A982F8981892B898389810F90CF91B5
:104CB000DF910895DF93CF93CDB7DEB780913002B7
:104CC000846080933002CF91DF910895DF93CF937A
:104CD000CDB7DEB7809130028B7F80933002CF91C9
:104CE000DF910895DF93CF930F92CDB7DEB719828E
:104CF00080E064E00E944B0C982F8981892B898386
:104D000089810F90CF91DF910895DF93CF9300D0E9
:104D100000D000D0CDB7DEB789836A838A81853021
:104D200009F41A829091F0018981891731F49091E8
:104D3000F1018A81891709F4C5C08A81882309F0A5
:104D40004DC081E00E940C15982F80912202892B82
:104D5000809322028CE00E940C15982F80912202F1
:104D6000892B809322028981282F30E03E832D8376
:104D70008D819E818230910529F12D813E812330E4
:104D8000310554F48D819E810097B1F02D813E81D3
:104D900021303105A1F096C08D819E81843091052E
:104DA000B9F02D813E81243031057CF08D819E81CA
:104DB0008530910581F086C00E94732783C00E94D0
:104DC000D22780C00E940B297DC00E94E1297AC0B1
:104DD0000E94CA2A77C00E94692B74C081E00E9499
:104DE0000C15982F80912202892B809322028981B1
:104DF000282F30E03C832B838B819C81833091056D
:104E000009F43FC02B813C81243031055CF48B8157
:104E10009C818130910589F02B813C8122303105C4
:104E200021F150C08B819C8184309105B1F12B819F
:104E30003C8125303105B9F145C08A81813019F4B2
:104E40000E9409283FC08A81823019F40E945D289F
:104E500039C08A81833019F40E949D2833C08A8129
:104E6000843081F50E94D4282DC08A81813019F4C4
:104E70000E94562927C08A81823021F50E948D29FF
:104E800021C08A81813019F40E942C2A1BC08A819A
:104E90008230C1F40E94632A15C08A81813091F466
:104EA0000E94152B0FC08A81813011F40E94A02B23
:104EB0008A81823011F40E94FE2B8A81833011F4A2
:104EC0000E945C2C89818093F0018A818093F1019A
:104ED0008091220226960FB6F894DEBF0FBECDBF9A
:104EE000CF91DF910895DF93CF93CDB7DEB780E008
:104EF00060E00E94D015982F80912202892B809328
:104F0000220284E890E00E949A15982F8091220254
:104F1000892B8093220281E061E00E94D015982FB6
:104F200080912202892B809322028DE890E00E94DA
:104F30009A15982F80912202892B8093220281E07A
:104F400069E00E94D015982F80912202892B8093CE
:104F5000220282E990E00E949A15982F8091220205
:104F6000892B8093220285E20E945315982F80910D
:104F70002202892B8093220280E06EE00E94D015ED
:104F8000982F80912202892B8093220282E00E9436
:104F90005315982F80912202892B80932202CF9162
:104FA000DF910895DF93CF93CDB7DEB780E060E067
:104FB0000E94D015982F80912202892B8093220283
:104FC00087E990E00E949A15982F80912202892B00
:104FD0008093220280E06EE00E94D015982F80918D
:104FE0002202892B8093220280E00E945315982F81
:104FF00080912202892B8093220283E00E94531524
:10500000982F80912202892B80932202CF91DF91E9
:105010000895DF93CF93CDB7DEB78EE00E940C15D5
:10502000982F80912202892B8093220280E060E0F9
:105030000E94D015982F80912202892B8093220202
:105040008FE990E00E949A15982F80912202892B77
:105050008093220281E062E00E94D015982F809117
:105060002202892B809322028EEA90E00E949A15F8
:10507000982F80912202892B8093220281E06EE09A
:105080000E94D015982F80912202892B80932202B2
:1050900080E00E945315982F80912202892B8093E3
:1050A000220283E00E945315982F80912202892BBF
:1050B00080932202CF91DF910895DF93CF93CDB7F4
:1050C000DEB78CE00E940C15982F80912202892B6C
:1050D0008093220280E060E00E94D015982F80919A
:1050E0002202892B8093220284EB90E00E949A1581
:1050F000982F80912202892B8093220281E06EE01A
:105100000E94D015982F80912202892B8093220231
:1051100080E00E945315982F80912202892B809362
:10512000220283E00E945315982F80912202892B3E
:1051300080932202CF91DF910895DF93CF93CDB773
:10514000DEB780E060E00E94D015982F80912202A7
:10515000892B8093220282EC90E00E949A15982F6E
:1051600080912202892B8093220281E06EE00E94CE
:10517000D015982F80912202892B8093220280E003
:105180000E945315982F80912202892B809322022E
:1051900083E00E945315982F80912202892B8093DF
:1051A0002202CF91DF910895DF93CF93CDB7DEB781
:1051B00080E060E00E94D015982F80912202892B18
:1051C000809322028EEC90E00E949A15982F809195
:1051D0002202892B8093220281E06EE00E94D0158A
:1051E000982F80912202892B8093220280E00E94D6
:1051F0005315982F80912202892B8093220283E0FD
:105200000E945315982F80912202892B80932202AD
:10521000CF91DF910895DF93CF93CDB7DEB780E0D4
:1052200060E00E94D015982F80912202892B8093F4
:1052300022028DED90E00E949A15982F8091220213
:10524000892B8093220280E06EE00E94D015982F77
:1052500080912202892B8093220280E00E945315C4
:10526000982F80912202892B8093220283E00E9452
:105270005315982F80912202892B8093220281E07E
:1052800060E00E94D015982F80912202892B809394
:10529000220283EE90E00E949A15982F80912202BC
:1052A000892B80932202CF91DF910895DF93CF93D2
:1052B000CDB7DEB780E060E00E94D015982F8091D6
:1052C0002202892B809322028BEE90E00E949A1595
:1052D000982F80912202892B8093220281E06EE038
:1052E0000E94D015982F80912202892B8093220250
:1052F00080E00E945315982F80912202892B809381
:10530000220283E00E945315982F80912202892B5C
:1053100080932202CF91DF910895DF93CF93CDB791
:10532000DEB78EE00E940C15982F80912202892B07
:105330008093220280E060E00E94D015982F809137
:105340002202892B8093220288EF90E00E949A1516
:10535000982F80912202892B8093220281E060E0C5
:105360000E94D015982F80912202892B80932202CF
:1053700080E091E00E949A15982F80912202892B5B
:105380008093220281E06EE00E94D015982F8091D8
:105390002202892B8093220280E00E945315982FCD
:1053A00080912202892B8093220283E00E94531570
:1053B000982F80912202892B80932202CF91DF9136
:1053C0000895DF93CF93CDB7DEB780E060E00E9411
:1053D000D015982F80912202892B809322028AE097
:1053E00091E00E949A15982F80912202892B809338
:1053F000220280E06EE00E94D015982F8091220258
:10540000892B8093220280E00E945315982F80916F
:105410002202892B8093220283E00E945315982F49
:1054200080912202892B8093220281E060E00E9419
:10543000D015982F80912202892B8093220283EE2F
:1054400090E00E949A15982F80912202892B8093D8
:105450002202CF91DF910895DF93CF93CDB7DEB7CE
:1054600080E060E00E94D015982F80912202892B65
:105470008093220282E191E00E949A15982F8091F8
:105480002202892B8093220281E06EE00E94D015D7
:10549000982F80912202892B8093220280E00E9423
:1054A0005315982F80912202892B8093220283E04A
:1054B0000E945315982F80912202892B80932202FB
:1054C000CF91DF910895DF93CF93CDB7DEB78EE014
:1054D0000E940C15982F80912202892B8093220222
:1054E00080E060E00E94D015982F80912202892BE5
:1054F0008093220281E291E00E949A15982F809178
:105500002202892B8093220281E060E00E94D01564
:10551000982F80912202892B809322028CE291E0C5
:105520000E949A15982F80912202892B8093220243
:1055300081E069E00E94D015982F80912202892B8A
:105540008093220285E20E945315982F80912202B7
:10555000892B8093220281E06EE00E94D015982F63
:1055600080912202892B8093220280E00E945315B1
:10557000982F80912202892B8093220283E00E943F
:105580005315982F80912202892B80932202CF916C
:10559000DF910895DF93CF93CDB7DEB780E060E071
:1055A0000E94D015982F80912202892B809322028D
:1055B00086E391E00E949A15982F80912202892B10
:1055C0008093220280E06EE00E94D015982F809197
:1055D0002202892B8093220280E00E945315982F8B
:1055E00080912202892B8093220283E00E9453152E
:1055F000982F80912202892B8093220281E060E023
:105600000E94D015982F80912202892B809322022C
:105610008EE391E00E949A15982F80912202892BA7
:1056200080932202CF91DF910895DF93CF93CDB77E
:10563000DEB78EE00E940C15982F80912202892BF4
:105640008093220280E060E00E94D015982F809124
:105650002202892B8093220286E491E00E949A150F
:10566000982F80912202892B8093220281E061E0B1
:105670000E94D015982F80912202892B80932202BC
:1056800085E591E00E949A15982F80912202892B3E
:105690008093220281E06EE00E94D015982F8091C5
:1056A0002202892B8093220280E00E945315982FBA
:1056B00080912202892B8093220283E00E9453155D
:1056C000982F80912202892B80932202CF91DF9123
:1056D0000895DF93CF93CDB7DEB780E060E00E94FE
:1056E000D015982F80912202892B8093220289E580
:1056F00091E00E949A15982F80912202892B809325
:10570000220280E06EE00E94D015982F8091220244
:10571000892B8093220281E00E945315982F80915B
:105720002202892B8093220283E00E945315982F36
:1057300080912202892B80932202CF91DF910895DC
:10574000DF93CF93CDB7DEB78EE00E940C15982F74
:1057500080912202892B8093220280E060E00E94E7
:10576000D015982F80912202892B8093220286E601
:1057700091E00E949A15982F80912202892B8093A4
:10578000220281E061E00E94D015982F80912202D0
:10579000892B8093220283E791E00E949A15982F2B
:1057A00080912202892B8093220280E06EE00E9489
:1057B000D015982F80912202892B8093220281E0BC
:1057C0000E945315982F80912202892B80932202E8
:1057D00083E00E945315982F80912202892B809399
:1057E000220280E061E00E94D015982F8091220271
:1057F000892B80932202CF91DF910895DF93CF937D
:10580000CDB7DEB78EE00E940C15982F8091220252
:10581000892B8093220280E060E00E94D015982FAF
:1058200080912202892B8093220288E791E00E94D6
:105830009A15982F80912202892B8093220281E071
:1058400061E00E94D015982F80912202892B8093CD
:10585000220283E791E00E949A15982F80912202FC
:10586000892B8093220280E06EE00E94D015982F51
:1058700080912202892B8093220281E00E9453159D
:10588000982F80912202892B8093220283E00E942C
:105890005315982F80912202892B8093220280E059
:1058A00061E00E94D015982F80912202892B80936D
:1058B0002202CF91DF910895DF93CF93CDB7DEB76A
:1058C0008CE00E940C15982F80912202892B8093E6
:1058D000220280E060E00E94D015982F8091220281
:1058E000892B8093220281E891E00E949A15982FDB
:1058F00080912202892B8093220280E06EE00E9438
:10590000D015982F80912202892B8093220283E068
:105910000E945315982F80912202892B8093220296
:10592000CF91DF910895DF93CF9300D000D000D0C6
:10593000CDB7DEB78091F001882341F480912E022B
:105940008071882319F40E94992DE8C08091F0019C
:10595000813009F05AC08091F101282F30E03E8358
:105960002D838D819E8182309105A1F12D813E8113
:105970002330310554F48D819E81009789F02D816B
:105980003E8121303105E9F0C9C08D819E8183308F
:10599000910549F12D813E812430310569F1BEC068
:1059A000809130028870882309F4B8C081E068E0F3
:1059B0000E94D0158091290290912A020E94EF2D19
:1059C000ADC080912E028071882309F4A7C00E9487
:1059D000562EA4C080912E028071882309F49EC0A7
:1059E0000E94912E9BC080912E028071882309F421
:1059F00095C00E94D92E92C080912E02807188237A
:105A000009F48CC00E94212F89C08091F00182305E
:105A100051F58091F101282F30E03C832B838B815D
:105A20009C818130910569F02B813C8122303105C8
:105A300089F08B819C81009709F070C00E945A2FD9
:105A40006DC080912E028071882309F467C00E9486
:105A5000852F64C080912E028071882309F45EC076
:105A60000E94E42F5BC08091F001833041F580916A
:105A7000F101282F30E03A83298389819A8181308E
:105A8000910569F029813A812230310581F08981BF
:105A90009A81009709F042C00E9463303FC0809114
:105AA0002E0280718823D1F10E948E3037C0809100
:105AB0002E028071882391F10E94ED302FC08091D9
:105AC000F0018430C1F48091F101882341F4809188
:105AD0002E028071882319F40E946C311FC08091BE
